:020000040800F2
:1000000000000220B9020008C5710008C97100088B
:10001000CD710008D1710008D57100080000000002
:10002000000000000000000000000000CD030008F8
:10003000D971000800000000D5030008DD71000838
:10004000E9030008E9030008E9030008E9030008E0
:10005000E9030008E9030008E9030008E9030008D0
:10006000E9030008E9030008E9030008E9030008C0
:10007000E9030008E9030008E9030008E9030008B0
:10008000E9710008E9030008F9710008E9030008B4
:10009000E9030008E9030008E9030008E903000890
:1000A000E9030008E9030008E9030008E903000880
:1000B0000972000819720008E9030008E903000842
:1000C000E9030008E9030008E9030008E903000860
:1000D000E9030008E9030008E9030008E903000850
:1000E000E9030008E9030008E9030008E903000840
:1000F000E9030008E9030008E9030008E903000830
:10010000E903000829720008E9030008E903000870
:10011000E9030008E903000839720008E903000850
:1001200049720008E9030008E90300085972000851
:10013000E90300080000000000000000E9030008D7
:10014000E9030008E9030008E903000869720008F0
:10015000E9030008E9030008E9030008E9030008CF
:10016000E9030008E9030008E9030008E9030008BF
:10017000E9030008E9030008000000000000000097
:10018000E9030008E903000800B583B006F03CFC71
:10019000384B394A1360394A136039490CE00A6810
:1001A0004B6801F10C04886803E01168196004339E
:1001B00004329842F9D82146324B9942EFD32E4B64
:1001C0001A68314B9A4204D12C4B1A682F4B9A4231
:1001D00000D0FEE7274B2E4A13602E4A13602E4BA9
:1001E0000AE0194651F8082B5B6802E00020106015
:1001F00004329A42FAD30B46284A9342F1D3244B55
:100200001B6813B9234B1B6803B1FEE707F07AFCA8
:1002100001A8694606F0D4F9214C224B1C1BA410FE
:10022000002504E01E4B53F8253098470135AC42B9
:10023000F8DC1D4C1D4B1C1BA410002504E01A4BC0
:1002400053F8253098470135AC42F8DC0198009905
:1002500008F098F80546164C164B1C1BA41004E039
:10026000013C134B53F824309847002CF8DC284607
:1002700006F042F9BABADECA0000002014040020D9
:10028000EC030008040400087856341232547698BF
:1002900018040020101800200404000814040008AA
:1002A00014040008140400081404000828040008BA
:1002B000280400083404000808B5FFF765FF00BFF4
:1002C00000BEFEE71EF0040F0CBFEFF30880EFF353
:1002D00009807146414A10472DE9F04182B0044639
:1002E0008846134B5E6B9D6B9F6A1B6B13F0020F6E
:1002F0000DD00F4BDB6A002B09DA4BF6AB6106F031
:100300000DFC20B14FF00042094BDA620CE00948C5
:1003100006F014FBCDF800802046394632462B46C5
:1003200006F084FB00BEFEE702B0BDE8F08100BF2E
:1003300000ED00E0FC11010800BEFEE71EF0040F16
:100340000CBFEFF30880EFF309807146244A104791
:100350002DE9F04182B007468846084B5D6B9C6BE7
:100360009E6A074806F0EAFACDF800803846314622
:100370002A46234606F05AFB00BEFEE700ED00E0E9
:100380000C1201081EF0040F0CBFEFF30880EFF30E
:1003900009807146134A10472DE9F04182B00746A3
:1003A0008846084B5D6B9C6B9E6A074806F0C6FA50
:1003B000CDF80080384631462A46234606F036FB03
:1003C00000BEFEE700ED00E01812010800BEFEE7E7
:1003D00000BEFEE700BEFEE770470000D90200083D
:0C03E000510300089903000800BEFEE76E
:1003EC002025010800000020180400202025010809
:1003FC000000001000000010180400201418002049
:10040C00000000100000001011840008598D000835
:10041C00199300084DD0000811D100082184000860
:08042C00698D00082993000806
:1004380010B5044602F06AFA064BA3FB00308009A7
:1004480000F0EEFC4FF0FF302146002200F092FC55
:10045800002010BDD34D621008B50B4B1A6842F44A
:1004680000721A601A6842F480621A601A6842F4CC
:1004780080721A60032000F05FFC0F20FFF7D8FF9E
:1004880009F092FA002008BD003C0240024A1368B5
:1004980001331360704700BF080D0020014B186836
:1004A800704700BF080D002010B582B00190FFF71B
:1004B800F5FF0446FFF7F2FF001B019B9842F9D3B2
:1004C80002B010BD10B50446504B5A6822F44032B1
:1004D8005A60596842680A435A600268536823F4AC
:1004E8008073536002685368016943EA01235360CB
:1004F8000268536823F04073536002685168836848
:100508000B4353600268936823F4006393600268A6
:100518009168C3680B439360826A3D4B9A4214D03A
:100528000268936823F07063936002689168836A35
:100538000B4393600268936823F04053936002680A
:100548009168C36A0B43936009E00268936823F0DB
:10055800706393600268936823F040539360226845
:10056800936823F00203936022689368A16943EAC1
:1005780041039360236A03B3636A013B072B04D9E1
:10058800244840F2046106F0C9F92268536843F42C
:10059800006353602268536823F460435360636ABE
:1005A800013B4FF4604292FAA2F2B2FA82F293400F
:1005B800226851680B43536004E02268536823F4AF
:1005C800006353602268D36A23F47003D3622168FE
:1005D800CA6AE369013B42EA0353CB622268936823
:1005E80023F40073936022689368216B43EA4123E4
:1005F80093602268936823F4806393602268936809
:10060800616943EA8123936010BD00BF0023014064
:100618000100000F280E0108002800F0DE8010B548
:10062800044603686E4A93420CD002F580729342E6
:1006380008D002F58072934204D06A4840F20D1146
:1006480006F06CF963686BB1B3F5803F0AD0B3F577
:10065800003F07D0B3F5403F04D062484FF487719C
:1006680006F05CF9A3686BB1B3F1807F0AD0B3F1EF
:10067800007F07D0B3F1407F04D05A4840F20F11F1
:1006880006F04CF92369012B04D956484FF48871B8
:1006980006F044F9A369012B04D9524840F211111C
:1006A80006F03CF9A36AA3B3B3F1807F31D0B3F16C
:1006B800007F2ED0B3F1407F2BD0B3F1806F28D0CC
:1006C800B3F1A06F25D0B3F1C06F22D0B3F1E06FC2
:1006D8001FD0B3F1006F1CD0B3F1106F19D0B3F174
:1006E800206F16D0B3F1306F13D0B3F1406F10D034
:1006F800B3F1506F0DD0B3F1606F0AD0B3F1706FE2
:1007080007D0394A934204D036484FF4897106F02D
:1007180005F9E3683BB1B3F5006F04D0314840F206
:10072800131106F0FBF8E369013B0F2B04D92D48A0
:100738004FF48A7106F0F2F8236B012B04D929488B
:1007480040F2151106F0EAF86369022B04D925482E
:100758004FF48B7106F0E2F8236A012B04D9214883
:1007680040F2171106F0DAF8A26A1F4B9A420FD02E
:10077800E36A6BB1B3F1805F0AD0B3F1005F07D0D1
:10078800B3F1405F04D0174840F21B1106F0C6F8D9
:10079800236C2BB9636484F83C30204606F0DCFAFD
:1007A800236C13F0100F13D1236C23F4885323F018
:1007B800020343F0020323642046FFF783FE002070
:1007C8006064236C23F0030343F00103236400E017
:1007D8000120002384F83C3010BD0120704700BF81
:1007E80000200140280E01080100000F70B582B0FA
:1007F80004460E461546002301938369012B04D94C
:10080800504840F2FA3106F089F8E36A6BB1B3F167
:10081800805F0AD0B3F1005F07D0B3F1405F04D026
:10082800484840F2FB3106F079F894F83C30012B47
:100838007CD0012384F83C3023689A6812F0010FB9
:1008480013D19A6842F001029A603F4B1B683F4AF5
:10085800A2FB03239B0C03EB4303019302E0019BE0
:10086800013B0193019B002BF9D12268936813F097
:10087800010F5DD0236C23F4E06323F0010343F4FC
:1008880080732364536813F4806F05D0236C23F4BA
:10089800405343F480532364236C13F4805F04D0E3
:1008A800636C23F00603636401E0002363640023A0
:1008B80084F83C30A36B264ADA63A36B254A1A6492
:1008C800A36B254A9A6423686FF002021A602268B3
:1008D800536843F0806353602268936843F48073DD
:1008E80093602168A06B4C3132462B4600F02CFDFA
:1008F8001A4B5B6813F01F0F0AD123689A6812F02D
:10090800405F17D19A6842F080429A60002016E052
:100918002368134A93420FD19A6812F0405F0DD1B1
:100928009A6842F080429A60002008E0022006E0BF
:10093800002004E0002002E0002000E0002002B0D7
:1009480070BD00BF280E01080400002083DE1B4391
:100958006D090008D5090008650B0008002301404F
:100968000020014008B5836B1A6C12F0500F26D195
:100978001A6C42F400721A641A68916811F0405FA8
:1009880019D19969B9B9D16A11F4700F03D0916876
:1009980011F4806F0FD1516821F0200151601A6C59
:1009A80022F480721A641A6C12F4805F03D11A6CF4
:1009B80042F001021A64184608F07CFF08BD9B6BE0
:1009C8009B6C984708BD00BF704700BF08B5806B97
:1009D800FFF7FAFF08BD00BF704700BF38B50446EF
:1009E8008369012B04D95C4840F2693105F096FF10
:1009F800E369013B0F2B04D9574840F26A3105F0EF
:100A08008DFF6369022B04D9534840F26B3105F01E
:100A180085FF22681168536803F0200311F0020F64
:100A28002DD063B3236C13F0100F03D1236C43F460
:100A380000732364936813F0405F19D1A369BBB9AD
:100A4800D36A13F4700F03D0936813F4806F0FD137
:100A5800536823F020035360236C23F480732364CA
:100A6800236C13F4805F03D1236C43F001032364E8
:100A7800204608F01FFF23686FF012021A602368EF
:100A880019685A6802F0800211F0040F36D0002A63
:100A980034D0226C12F0100F03D1226C42F40052B1
:100AA80022649A6812F4401F21D19A6B12F4401FF5
:100AB80003D09A6812F4806F19D15A6812F4806FC3
:100AC80015D19A6812F0405F11D1A2697AB95A68B3
:100AD80022F080025A60236C23F480532364236C31
:100AE80013F4807F03D1236C43F001032364204671
:100AF80000F020F923686FF00C021A602268116870
:100B0800536803F0400311F0010F0FD073B113685D
:100B180013F0010F0AD0236C43F48033236420467A
:100B2800FFF75AFF23686FF001021A602268116804
:100B3800536803F0806311F0200F0CD05BB1636C35
:100B480043F0020363646FF020051560204608F047
:100B5800B3FE23681D6038BD280E010808B5806BF8
:100B680040230364436C43F00403436408F0A4FE89
:100B780008BD00BF30B583B005460C46002301937D
:100B88000B68122B04D9674840F2FE4105F0C6FEF7
:100B98006368013B0F2B04D9624840F2FF4105F01E
:100BA800BDFEA368072B04D95E484FF4A06105F089
:100BB800B5FE95F83C30012B00F0B080012385F894
:100BC8003C302368092B16D92868C2689BB203EB0E
:100BD80043031E3B072101FA03F322EA0303C36020
:100BE8002968C868A268238803EB43031E3B9A4020
:100BF8000243CA6013E0286802699BB203EB43030F
:100C0800072101FA03F322EA03030361296808694B
:100C1800A368228802EB4202934003430B61636896
:100C2800062B16D82868426B03EB8303053B1F216C
:100C380001FA03F322EA030343632968486B228815
:100C4800636803EB8303053B02FA03F303434B6337
:100C58002EE00C2B16D82868026B03EB8303233B8A
:100C68001F2101FA03F322EA030303632968086BCF
:100C78002288636803EB8303233B02FA03F30343ED
:100C88000B6315E02868C26A03EB8303413B1F210D
:100C980001FA03F322EA0303C3622968C86A2288B7
:100CA800636803EB8303413B02FA03F30343CB621C
:100CB8002A681D4B9A4207D12368122B04D11B4A7C
:100CC800536843F4800353602A68174B9A4221D132
:100CD8002368103B012B1DD8144A536843F40003C2
:100CE80053602368102B15D1114B1B6802F1467213
:100CF80002F52E3202F28332A2FB03239B0C03EB94
:100D080083035B00019302E0019B013B0193019B7C
:100D1800002BF9D1002085F83C0000E0022003B048
:100D280030BD00BF280E010800200140002301400B
:100D380004000020704700BF10B50446C31E042BF2
:100D480003D90A48A42105F0E9FD04F00700084A80
:100D5800D36823F4E0631B041B0C43EA002040F033
:100D6800BF6040F40030D06010BD00BF580E0108CD
:100D780000ED00E070B504460E4615460F2A03D96B
:100D88001A48BC2105F0CAFD0F2E03D91748BD210A
:100D980005F0C4FD164BDB68C3F30223C3F1070259
:100DA800042A28BF0422191D062901D9D81E00E0EB
:100DB8000020012303FA02F2013A324002FA00F15C
:100DC80083405A1E2A400A43002C06DA04F00F0416
:100DD8001201D2B2074B1A5570BD1201D2B204F1FA
:100DE800604404F5614484F8002370BD580E01087E
:100DF80000ED00E014ED00E010B5041E03DA06482B
:100E0800D02105F08BFD610904F01F040123A340E4
:100E1800024A42F8213010BD580E010800E100E0F6
:100E28000138B0F1807F0AD2064B5860F021064A9B
:100E380082F823100020986007221A60704701206A
:100E4800704700BF10E000E000ED00E010B5044678
:100E5800042805D020B1094840F2B31105F05EFD21
:100E6800042C05D1064A136843F00403136010BD2F
:100E7800034A136823F00403136010BD580E0108D9
:100E880010E000E0704700BF08B5FFF7FBFF08BDA2
:100E9800C8B110B5044602680C4B9A4203D00C48FE
:100EA800F02105F03BFD237913F0FF0F04D1002357
:100EB8006371204606F00EF802232371002020619A
:100EC8000123237110BD0120704700BF007400404A
:100ED8008C0E010838B504460D4631B1102904D0EE
:100EE8001B484FF4B77105F019FD6379012B2CD01D
:100EF800012363710222227122681168AB400B43FF
:100F0800136075B922681168136803F0380311F08B
:100F1800040F15D0382B13D1536843F001035360E5
:100F28000EE022681168136803F4601311F4802F2F
:100F380006D0B3F5601F03D1536843F00203536032
:100F4800012323710020607138BD022038BD00BF25
:100F58008C0E0108704700BF10B5044603685A6B31
:100F680012F4005F0FD004220271026942F00102FC
:100F780002614FF400525A630268136823F48053E5
:100F88001360FFF7E7FF23685A6B12F0005F10D079
:100F980004222271226942F0020222614FF00052BB
:100FA8005A632268136823F080531360204600F0C8
:100FB80087F810BDF8B504460E4615460B68A3B170
:100FC800242B12D00C2B10D0142B0ED01C2B0CD091
:100FD800042B0AD02C2B08D0342B06D03C2B04D061
:100FE8001B4840F20A3105F099FC736833B1022BB3
:100FF80004D0174840F20B3105F090FC35B1102DA4
:1010080004D013484FF4437105F088FC6379012B31
:101018001BD001206071022323712768396840F6CC
:10102800FE73AB4021EA0302316873680B43AB409F
:1010380013433B6021680A68C023AB4022EA0303DC
:101048000B60207100206071F8BD0220F8BD00BF60
:101058008C0E0108F0B583B0074614461D460023E0
:1010680001930E4631B1102904D0144840F24231A0
:1010780005F054FC44B1042C06D0082C04D00F48C9
:1010880040F2433105F04AFC4FF6F0739D4204D913
:101098000A484FF4517105F041FC3B68019326B9A9
:1010A800019B1C440834019403E0019B1C44143444
:1010B8000194019B1D60002003B0F0BD8C0E010857
:1010C800704700BF30B405682C6824F480242C6075
:1010D800046863608368402B04D103689A600368DE
:1010E800D96003E0036899600368DA6030BC704730
:1010F8000268D3B2103B0B49A1FB03131B090A4931
:10110800C95C4165032B06D922F47F7222F00302E1
:101118000432026504E022F47F7222F003020265C1
:10112800006D7047ABAAAAAABC0E0108002800F0FF
:10113800038110B504460368804A934231D01832BF
:1011480093422ED0183293422BD01832934228D093
:101158001832934225D01832934222D01832934243
:101168001FD0183293421CD002F55672934218D001
:101178001832934215D01832934212D01832934243
:101188000FD0183293420CD01832934209D018323B
:10119800934206D01832934203D06948C52105F01E
:1011A800BDFB6368C3B1B3F1007F15D0B3F1806FA5
:1011B80012D0B3F1C06F0FD0B3F1006F0CD0B3F100
:1011C800206F09D0B3F1406F06D0B3F1606F03D040
:1011D8005B48C62105F0A2FBA3683BB1402B05D0B4
:1011E800802B03D05648C72105F098FBE368B3F578
:1011F800007F04D01BB15248C82105F08FFB23693A
:10120800B3F5806F04D01BB14D48C92105F086FBAA
:1012180063694BB1B3F5006F06D0B3F5805F03D0B7
:101228004748CA2105F07AFBA3694BB1B3F5005FC3
:1012380006D0B3F5804F03D04148CB2105F06EFBB3
:10124800E36943B1B3F5807F05D0202B03D03C4838
:10125800CC2105F063FB236A63B1B3F5803F09D065
:10126800B3F5003F06D0B3F5403F03D03448CD2155
:1012780005F054FB636A2BB1042B03D03048CE2110
:1012880005F04CFB636A23B3A36A032B03D92C48EC
:10129800D32105F043FBE36A63B1B3F5000F09D02E
:1012A800B3F1807F06D0B3F1C07F03D02448D421A6
:1012B80005F034FB236B63B1B3F5001F09D0B3F518
:1012C800800F06D0B3F5C00F03D01D48D52105F017
:1012D80025FB022384F8353020680268194B134037
:1012E8006168A2681143E268114322691143626987
:1012F8001143A2691143E2691143226A0A43134365
:10130800626A042A03D1E16A226B0A431343036029
:101318002268536923F00703616A0B43042901D14A
:10132800A16A0B4353612046FFF7E2FE0020E06408
:10133800012384F8353010BD012070471060024049
:10134800C40E01083F8010F0F8B590F83440012C25
:101358002FD01D4616460F460446012380F8343028
:10136800022380F835306A1E4FF6FE739A4204D97C
:10137800114840F2991105F0D1FA2268136823F058
:10138800010313602046394632462B46FFF79AFE82
:101398002268136843F01E0313602268536943F000
:1013A800800353612268136843F00103136000202F
:1013B800F8BD0220F8BD00BFC40E010838B50446C8
:1013C800056D2A68416D08238B401A4219D00368BD
:1013D8001A6812F0040F14D01A6822F004021A6076
:1013E800426D08239340AB60C36C43F00103C364B0
:1013F800042380F83530002380F83430836C03B13F
:1014080098472A68616D584B8B401A421AD0236856
:101418005A6912F0800F15D05A6922F080025A6179
:10142800626D514B9340AB60E36C43F00203E3649D
:10143800042384F83530002384F83430A36C0BB1CE
:10144800204698472A68616D484B8B401A421AD04B
:1014580023681A6812F0020F15D01A6822F00202E7
:101468001A60626D414B9340AB60E36C43F0040338
:10147800E364042384F83530002384F83430A36C03
:101488000BB1204698472A68616D10238B401A4299
:101498002DD02268116811F0080F28D0116811F4B6
:1014A800802F11D0AB6023681A6812F4002F03D183
:1014B800312384F8353016E01B6813F4002F12D05E
:1014C800412384F835300EE0136813F4807F03D18C
:1014D800136823F008031360626D10239340AB6018
:1014E800312384F83530236C0BB1204698472A689D
:1014F800616D20238B401A4234D02268116811F0A4
:10150800100F2FD0116811F4802F13D0AB6023680F
:101518001A6812F4002F04D1636C1BB32046984755
:1015280038BD1B6813F4002F1CD0E36BD3B12046E1
:10153800984738BD136813F4807F03D1136823F0EC
:1015480010031360626D20239340AB60E36CE36487
:10155800112384F83530002384F83430E36B0BB161
:101568002046984738BD00BF010080000400800075
:101578002DE9F04F83B080460F46A14B984223D007
:1015880003F5806398421FD003F5806398421BD00F
:1015980003F58063984217D003F58063984213D00F
:1015A80003F5806398420FD003F5806398420BD00F
:1015B80003F58063984207D003F58063984203D00F
:1015C8009048C52105F0AAF93B881BB98D48C6216A
:1015D80005F0A4F97B68012B22D9112B20D0022B0E
:1015E8001ED0122B1CD0884A934219D002F58012C3
:1015F800934215D002F58012934211D0A2F5F81249
:1016080093420DD002F58012934209D002F5801260
:10161800934205D0032B03D07A48C72105F07EF901
:10162800BB68022B03D97748C82105F077F9002455
:1016380026E1A1460125A5403B6803EA050AAA451B
:1016480040F01D817B68022B01D0122B45D13B69EC
:101658009BB3092B31D083B37BB373B36BB3012B2B
:101668002BD02AD0022B28D027D026D0032B24D049
:10167800042B22D021D020D0052B1ED01DD0092B21
:101688001BD0062B19D0092B17D0072B15D014D037
:1016980013D0082B11D010D00FD0092B0DD00CD09F
:1016A8000A2B0AD009D00C2B07D006D005D00F2B57
:1016B80003D05448D92105F031F9E608083658F81E
:1016C800261004F0070080000F23834021EA03025C
:1016D8003B698340134348F82630D8F800304FEA76
:1016E800440B032606FA0BF6F64306EA03027B6868
:1016F80003F0030303FA0BF31343C8F800307B68C5
:101708005A1E012A03D9112B01D0122B1CD1FB68B8
:10171800032B03D93B48EC2105F000F9D8F8083031
:1017280006EA0302FB6803FA0BF31343C8F8083010
:10173800D8F8043023EA05037D68C5F3001505FAD7
:1017480009F51D43C8F80450D8F80C303340BE687A
:1017580006FA0BF61E43C8F80C607B6813F0805F2E
:1017680000F08D8000230193284B5A6C42F480428C
:101778005A645B6C03F480430193019BA308991C92
:10178800234A52F8211004F0030080000F228240FF
:1017980021EA02011A4A90453CD002F58062904540
:1017A8002BD002F58062904525D002F580629045E5
:1017B8001FD002F58062904519D002F580629045ED
:1017C80013D002F5806290450DD002F580629045F5
:1017D80007D002F58062904501D108221BE009225A
:1017E80019E0072217E0062215E0052213E004227B
:1017F80011E003220FE002220DE001220BE000BFFE
:1018080000000240F40E01080000111000380240E8
:1018180000380140002282400A4302331B4941F844
:1018280023201B4B1A686FEA0A0303EA020178684F
:1018380010F4803F01D04AEA0201154A116052684B
:1018480003EA0201786810F4003F01D04AEA020175
:101858000F4A5160926803EA0201786810F4801F09
:1018680001D04AEA02010A4A9160D26813407968B5
:1018780011F4001F01D04AEA0203054AD36001347B
:101888000F2C7FF6D6AE03B0BDE8F08F00380140CC
:10189800003C014038B505460C4621B905484FF4CF
:1018A800C87105F03BF82B69234201D0012038BDEF
:1018B800002038BDF40E010870B5064615460C46E2
:1018C80021B9094840F2B11105F028F8012D04D9D1
:1018D80005484FF4D97105F021F80DB1B46170BD18
:1018E8002404B46170BD00BFF40E01082DE9F0476F
:1018F80082B007460D46D0F80080CB005B1A9B00EB
:101908000344DE6C1A6DB61A1B6C9E4200D91E4643
:1019180006F103094FEA99091EE05E1AC5EBC503F3
:101928009B003B441B6C9E4200D91E4606F10309EE
:101938004FEA9909EC00641BA4003C44616C3B7CB1
:1019480000934046EAB2B3B204F020FB636C334420
:101958006364236D33442365424608EB451303F55E
:1019680010639B699BB24B4509D9EB005B1B9B003D
:101978003B44196DDB6C994201D2002BCDD13EB9A5
:101988000123AB40D2F8341821EA0303C2F83438F3
:10199800002002B0BDE8F087002876D0F0B58BB003
:1019A80004460368B3F1A04F06D03A4A934203D0E5
:1019B8003948952104F0B2FF032384F88133204687
:1019C80005F030FE206804F0A9F8254655F8107B8C
:1019D8006E460FCD0FC60FCD0FC695E8030086E8FB
:1019E8000300231D0ECB384604F056F8206800216A
:1019F80004F09AF8002210E0D3009B1A9B002344BD
:101A0800012183F8391083F83820DA87002183F818
:101A18003B1019645964D96401320E2AECD90022AA
:101A280018E0D3009B1A9B002344002183F8DD11A2
:101A380083F8DC21DA8783F8DF11C3F8E411C3F8EF
:101A4800E811C3F8F011236802F1400003EB8003AA
:101A5800596001320E2AE4D9254655F8107B6E46A6
:101A68000FCD0FC60FCD0FC695E8030086E803001B
:101A7800231D0ECB384604F097F8012384F88133F0
:101A8800206804F051FC002001E0012070470BB0F1
:101A9800F0BD00BF00000440240F010890F8803317
:101AA800012B0ED010B50446012380F8803300685E
:101AB80004F02EFC206804F02BF8002084F8800342
:101AC80010BD0220704700BF2DE9F84F0446066894
:101AD800304604F065FC002840F02682206804F0B7
:101AE8002FFC002800F02082206804F029FC10F068
:101AF800020F04D02268536903F00203536120687F
:101B080004F01EFC10F4002F5CD0206804F01CFCCC
:101B18000746002553E017F0010F4ED05FFA85F90C
:101B28002068494604F020FC804610F0010F31D0AF
:101B380006EB45130122C3F8082B03F5306322692D
:101B4800012A12D1EA00521B9200224402F5F071D8
:101B5800D2F8E4011B69C3F31203C01AC2F8F401F6
:101B6800D2F8E8214B6813448B602046494605F0BB
:101B780097FD2369012B0DD165B9C5EBC5039B0002
:101B88002344D3F8F0312BB92068012104F56172A0
:101B980004F026FC18F0080F07D0204605F076FD63
:101BA80006EB45130822C3F8082B18F0100F04D0D1
:101BB80006EB45131022C3F8082B01357F08002FC8
:101BC800A9D100E00025206804F0BAFB10F4802FAA
:101BD8006BD0206804F0C0FB0746002563E017F0CF
:101BE800010F5ED05FFA85F92068494604F0C6FB0C
:101BF800804610F0010F2DD0012202FA05F0D6F828
:101C0800343823EA0003C6F8343806EB4513C3F822
:101C180008292369934209D1EB005B1B9B002344ED
:101C280003F14002596C1B6C0B4453602046494633
:101C380005F042FD2369012B0CD15DB9C5EBC50345
:101C48009B002344DB6C2BB92068012104F56172E9
:101C580004F0C6FB18F0080F04D006EB4513082261
:101C6800C3F8082918F0100F04D006EB451310220A
:101C7800C3F8082918F0400F04D006EB451340229A
:101C8800C3F8082918F0020F04D006EB4513022206
:101C9800C3F8082918F0800F03D020462946FFF71B
:101CA80025FE01357F08002F99D1206804F048FBF4
:101CB80000280DDAD6F8043823F00103C6F80438F2
:101CC800204605F033FD2268536903F00043536151
:101CD800206804F035FB10F4006F0CD0D6F80838F3
:101CE80013F0010F02D0204605F008FD2268536961
:101CF80003F400635361206804F022FB10F4805F52
:101D08004FD0374606F50068D8F8043023F00103B1
:101D1800C8F804302068002103F01CFF002207E007
:101D280007EB4213FF21C3F80819C3F8081B013257
:101D380063689342F4D84FF0FF33C8F81830D8F8E6
:101D48001C3043F00113C8F81C30236B63B1D8F87A
:101D5800843043F00B03C8F88430D8F8443043F09B
:101D68000B03C8F844300BE0D8F8143043F00B03E9
:101D7800C8F81430D8F8103043F00B03C8F8103006
:101D8800D6F8003823F4FE63C6F800382068217CB2
:101D980004F5617204F024FB2268536903F480534C
:101DA8005361206804F0CCFA10F4005F27D0206853
:101DB80004F0FAFA2268D36823F47053D3602068D9
:101DC80003F094FF50B90023E3604FF4007363619C
:101DD8002268D36843F41053D36008E00323E36018
:101DE800402363612268D36843F4A053D36020463C
:101DF80005F074FC2268536903F4005353612068AA
:101E080004F09EFA10F0100F42D02268936923F074
:101E180010039361376A07F00F08C7F34343022B97
:101E28001CD147F6F0731F402DD03F094FEAC8096F
:101E3800C8EB090A4FEA8A0AA2443046DAF8E811E0
:101E48003A4604F0E3F9DAF8E8313B44CAF8E831F5
:101E5800DAF8F4311F44CAF8F47114E0062B12D1F1
:101E6800304604F56171082204F0D0F9C7F30A1767
:101E78004FEAC803C8EB030292002244D2F8F431B7
:101E88003B44C2F8F4312268936943F0100393612C
:101E9800206804F055FA10F0080F07D0204605F026
:101EA80017FC2268536903F008035361206804F0A3
:101EB80047FA10F4801F08D02046E9B205F042FC2A
:101EC8002268536903F480135361206804F038FAD8
:101ED80010F4001F08D02046E9B205F02DFC226856
:101EE800536903F400135361206804F029FA10F0D1
:101EF800804F07D0204605F02BFC2268536903F079
:101F080080435361206804F01BFA10F0040F0BD0D3
:101F180023685D6815F0040F02D0204605F01EFC0A
:101F280023685A6815435D60BDE8F88F90F88033E0
:101F3800012B0BD010B50446012380F880330068CC
:101F480004F0D6F9002084F8800310BD0220704701
:101F580038B50546C8B210F0800F07D001F07F04ED
:101F6800C4EBC404A40038342C4407E001F07F0417
:101F7800C4EBC404A4002C4404F5EE7401F07F0102
:101F88002170C0096070A260E37000B1E180022B8B
:101F980001D10023237195F88033012B0AD0012346
:101FA80085F880332868214603F0C0FE002085F8B4
:101FB800800338BD022038BD10B50446CAB212F0FD
:101FC800800F07D001F07F03C3EBC3039B003833B6
:101FD800034407E001F07F03C3EBC3039B00034402
:101FE80003F5EE7301F07F011970D2095A7094F865
:101FF8008023012A0AD0012284F880232068194608
:1020080003F0DAFE002084F8800310BD022010BD22
:1020180070B501F07F06F400A51BAD00054405F579
:10202800EE712C46C5F8E821C5F8F0310023C4F854
:10203800F43184F8DD3184F8DC610369012B05D1C2
:10204800C6EBC604A4000444C4F8EC2190F880232D
:10205800012A11D00446012280F8802326B900689D
:10206800DAB203F0E7FE03E00068DAB203F0A2FF99
:10207800002084F8800370BD022070BD01F07F014C
:10208800C1EBC10189000844B0F8F401704700BFF2
:1020980070B501F07F06F400A51BAD003835411975
:1020A800A41BA40004446264E364002323650123A1
:1020B80084F8393084F838600369012B04D1C6EB01
:1020C800C604A4000444A26490F88023012A11D015
:1020D8000446012280F8802326B90068DAB203F0AA
:1020E800A9FE03E00068DAB203F064FF002084F878
:1020F800800370BD022070BD38B50446CAB212F024
:10210800800F07D001F07F03C3EBC3039B00383374
:10211800034405E0C1EBC1039B00034403F5EE73E0
:102128000120987001F07F051D70D2095A7094F84B
:102138008023824210D084F880032068194604F076
:102148007BF82DB92068217C04F5617204F048F908
:10215800002084F8800338BD022038BD10B504463D
:10216800CAB212F0800F07D001F07F03C3EBC3039C
:102178009B003833034405E0C1EBC1039B000344D3
:1021880003F5EE730020987001F07F011970D209F1
:102198005A7094F88023012A0AD0012284F88023F7
:1021A8002068194604F074F8002084F8800310BDF4
:1021B800022010BD30B40468636A19B943EA0240CA
:1021C800A06218E00D46A06A03EB1040002308E067
:1021D80003F1400104EB8101496800EB1140013330
:1021E800DBB2691E8B42F3D340EA024005F13F019E
:1021F80004EB81014860002030BC704703685962D5
:102208000020704730B583B0044603680F2B03D90C
:102218009C48F62104F082FB236813F0010F45D097
:102228006368012B05D9052B03D09648FB2104F0E0
:1022380075FB954B9B6803F00C03042B0AD0924B5B
:102248009B6803F00C03082B0CD18F4B5B6813F4CD
:10225800800F07D08C4B1B6813F4003F26D06368AF
:1022680023BBCBE12279894B1A7063687BB1FEF7F7
:1022780015F9054605E0FEF711F9401B642800F240
:10228800BF81814B1B6813F4003FF4D00EE0FEF7CA
:1022980005F9054605E0FEF701F9401B642800F240
:1022A800B181794B1B6813F4003FF4D1236813F014
:1022B800020F6AD0E368012B04D9724840F22D114D
:1022C80004F02CFB23691F2B04D96E484FF4977137
:1022D80004F024FB6C4B9B6813F00C0F0AD06A4B7C
:1022E8009B6803F00C03082B1BD1674B5B6813F446
:1022F800800F16D1644B1B6813F0020F03D0E368FC
:10230800012B40F081816048036823F0F8012369BC
:10231800F82292FAA2F2B2FA82F293400B430360D7
:1023280033E0E368FBB10122594B1A60FEF7B6F8B7
:10233800054605E0FEF7B2F8401B022800F2668168
:10234800514B1B6813F0020FF4D04F48036823F079
:10235800F8012369F82292FAA2F2B2FA82F29340C3
:102368000B43036011E00022494B1A60FEF796F810
:10237800054605E0FEF792F8401B022800F2488166
:10238800414B1B6813F0020FF4D1236813F0080FB8
:102398002ED06369012B04D93A484FF4B77104F081
:1023A800BDFA636993B101223A4B1A60FEF776F8D9
:1023B800054605E0FEF772F8401B022800F22A8164
:1023C800314B5B6F13F0020FF4D011E00022314B58
:1023D8001A60FEF763F8054605E0FEF75FF8401B54
:1023E800022800F21981284B5B6F13F0020FF4D119
:1023F800236813F0040F60D0A368012B06D9052BBE
:1024080004D020484FF4CC7104F088FA00230193DB
:102418001D4B1A6C42F080521A641B6C03F08053F7
:102428000193019B1C4A136843F480731360FEF701
:1024380035F8054605E0FEF731F8401B022800F2A2
:10244800ED80154B1B6813F4807FF4D0227A134B70
:102458001A70A3688BB1FEF721F8054607E0FEF76E
:102468001DF8401B41F28833984200F2D980064B90
:102478001B6F13F0020FF2D01FE0FEF70FF80546AE
:1024880016E000BF640F010800380240023802401D
:1024980000004742800E47420070004070380240FA
:1024A800FDF7FCFF401B41F28833984200F2BA80E6
:1024B800634B1B6F13F0020FF2D1A369022B04D9EF
:1024C800604840F2CD1104F029FAA369002B00F00E
:1024D800AB805B4A926802F00C02082A00F0A680E2
:1024E800022B78D1E3693BB1B3F5800F04D055488E
:1024F8004FF4EB7104F012FA236A3F2B04D95148C8
:1025080040F2D71104F00AFA636A323BB3F5BF7F91
:1025180004D94C484FF4EC7104F000FAA36A022B7A
:102528000AD0042B08D0062B06D0082B04D0454827
:1025380040F2D91104F0F2F9E36A043B0B2B04D9F9
:1025480040484FF4ED7104F0E9F900223E4B1A605F
:10255800FDF7A4FF054604E0FDF7A0FF401B022895
:1025680066D8374B1B6813F0007FF5D1E269236A00
:102578001A43636A47F6C07191FAA1F1B1FA81F181
:102588008B401A43A36A5B08013B4FF4403191FA30
:10259800A1F1B1FA81F18B401343E26A4FF0706107
:1025A80091FAA1F1B1FA81F18A401343244A5360A8
:1025B8000122254B1A60FDF771FF044604E0FDF780
:1025C8006DFF001B022835D81D4B1B6813F0007FD8
:1025D800F5D0002031E000221B4B1A60FDF75EFFAA
:1025E800044604E0FDF75AFF001B022824D8144BC8
:1025F8001B6813F0007FF5D100201EE001201CE0CD
:1026080003201AE0032018E0012016E0032014E05C
:10261800032012E0032010E003200EE003200CE06A
:1026280003200AE0032008E0002006E0012004E07F
:10263800032002E0032000E0032003B030BD00BF08
:1026480000380240640F01086000474270B5044634
:102658000D460368013B0E2B04D984484FF40E71D4
:1026680004F05CF9072D04D9804840F2392104F0C0
:1026780055F97F4B1B6803F00F03AB4208D2EBB24E
:102688007B4A1370136803F00F03AB4240F0DB8002
:10269800236813F0020F1DD0A368A3B1802B12D0BA
:1026A800902B10D0A02B0ED0B02B0CD0C02B0AD062
:1026B800D02B08D0E02B06D0F02B04D06B484FF479
:1026C800147104F02BF96B498B6823F0F002A368AE
:1026D80013438B60236813F0010F64D06368032BE6
:1026E80004D9624840F2572104F018F96268012AB7
:1026F80005D1604B1B6813F4003F0FD1A5E0931E72
:10270800012B05D85B4B1B6813F0007F06D19EE0B8
:10271800584B1B6813F0020F00F09B8055498B68DB
:1027280023F0030313438B60FDF7B8FE0646636886
:10273800012B0FD107E0FDF7B1FE801B41F2883372
:10274800984200F288804B4B9B6803F00C03042BE3
:10275800F1D128E0022B0ED106E0FDF79FFE801B89
:1027680041F28833984278D8424B9B6803F00C03B7
:10277800082BF2D117E0032B10D13E4B9B68FDF7D5
:102788008DFE801B41F288339842F6D967E0FDF749
:1027980085FE801B41F28833984262D8354B9B688E
:1027A80013F00C0FF3D1324B1B6803F00F03AB424D
:1027B80007D9EAB22E4B1A701B6803F00F03AB421D
:1027C80051D1236813F0040F19D0E36883B1B3F52E
:1027D800805F0DD0B3F5A05F0AD0B3F5C05F07D016
:1027E800B3F5E05F04D0214840F2B52104F096F833
:1027F80020498B6823F4E052E36813438B60236815
:1028080013F0080F1AD0236983B1B3F5805F0DD098
:10281800B3F5A05F0AD0B3F5C05F07D0B3F5E05FAA
:1028280004D012484FF42F7104F078F8114A9368D5
:1028380023F46043216943EAC10393600F20FDF745
:10284800F7FD002070BD012070BD012070BD012082
:1028580070BD012070BD032070BD032070BD032032
:1028680070BD032070BD012070BD00BF640F01085A
:10287800003C024000380240214B9B6803F00C03E7
:10288800042B3AD0082B01D01E4870471C4B5868BF
:1028980000F03F005B6813F4800F0FD01A4BB3FBB6
:1028A800F0F3174A506847F6C072104092FAA2F245
:1028B800B2FA82F2D04000FB03F30EE0114BB3FBF7
:1028C800F0F30F4A506847F6C072104092FAA2F22D
:1028D800B2FA82F2D04000FB03F3094A506800F4D0
:1028E80040304FF4403292FAA2F2B2FA82F2D0406B
:1028F80001304000B3FBF0F070470348704700BF59
:10290800003802400024F400001BB70008B5FFF7A8
:10291800B3FF084B9B6803F0F003F02292FAA2F28F
:10292800B2FA82F2D340044AD35CD840034B186011
:1029380008BD00BF00380240540F01080400002001
:1029480001684B6BC3F3C0134FF4803203E04B6B49
:10295800C3F3C013013A0AB1002BF8D022B140F2F8
:10296800FF538B63002070470320704701684B6B4F
:1029780013F0450F14BF012200224FF4803306E004
:102988004A6B12F0450F14BF01220022013B0AB91D
:10299800002BF5D14A6B02F0040203B11AB10423EB
:1029A8008B63032070474B6B13F0400F03D0402319
:1029B8008B63002070472920704700BF03685A6B5B
:1029C80012F0450FFAD05A6B12F0040F03D004220C
:1029D8009A630320704740F2FF529A6300207047C1
:1029E80003685A6B12F0450FFAD05A6B12F0040FB5
:1029F80003D004229A63032070475A6B12F0010F28
:102A080002D001209863704740F2FF529A63002079
:102A1800704700BF38B503685A6B12F0450FFAD0FB
:102A28005A6B12F0040F03D004229A63032038BDB6
:102A38005A6B12F0010F02D00120986338BD0D4681
:102A48000446184602F08EFFA84243D1236840F29C
:102A5800FF529A63002002F089FF334B0340DBB337
:102A680000283BDB10F0804F3AD110F0005F39D1DD
:102A780010F0805F38D110F0006F37D110F0806F00
:102A880036D110F0807F35D110F4000F34D110F416
:102A9800800F33D110F4001F32D110F4801F31D1D0
:102AA80010F4002F30D110F4802F2FD110F4003FF4
:102AB8002ED110F4803F2DD110F4004F2CD110F4FA
:102AC800804F2BD110F4005F2AD110F0080F29D0C5
:102AD8001A2038BD102038BD002038BD1C2038BD54
:102AE800092038BD0A2038BD0B2038BD0C2038BD60
:102AF8000D2038BD0E2038BD0F2038BD102038BD40
:102B0800112038BD122038BD132038BD142038BD1F
:102B1800152038BD162038BD172038BD182038BDFF
:102B2800192038BD002038BD08E0FFFD2DE9F0412F
:102B380086B0044600258DF803505B4E356000686A
:102B480002F0C6FE0120FDF7AFFC012333600195BA
:102B58000295039504954FF480630593206801A9B5
:102B680002F0BEFE2046FFF7EBFE8DF803009DF84D
:102B7800033013F0FF0F03D09DF80300C0B28FE0BD
:102B88004FF4D573019308230293402303932068DD
:102B980001A902F0A5FE2046FFF7E8FE8DF8030024
:102BA8009DF8033013F0FF0F04D1012323624FF087
:102BB800804801E04FF00008002301933725029573
:102BC800206801A902F08CFE20462946FFF722FF63
:102BD8008DF803009DF8033013F0FF0F45D05CE03B
:102BE80000230193372602964022039204934FF460
:102BF80080630593206801A902F072FE20463146E1
:102C0800FFF708FF8DF803009DF8033013F0FF0F5E
:102C180003D09DF80300C0B242E048F0004343F4FB
:102C280080130193292302934023039300230493E1
:102C38004FF480630593206801A902F051FE2046F5
:102C4800FFF7BCFE8DF803009DF8033013F0FF0F6B
:102C580003D09DF80300C0B222E0002002F086FEF7
:102C6800002800DA0127013502E000273D463846F2
:102C78001FB94FF6FE739D42B2D94FF6FE739D42BF
:102C880006D91B238DF803309DF80300C0B207E076
:102C980010F0804F01D0022323629DF80300C0B2D8
:102CA80006B0BDE8F08100BFA080254230B587B0EE
:102CB80005460192072402944023039300230493BA
:102CC8004FF480630593006801A902F009FE2846C5
:102CD8002146FFF79FFE07B030BD00BFF1B170B5C8
:102CE80086B00E460446436A1B0401930D250295DF
:102CF80040230393002304934FF4806305930068F3
:102D080001A902F0EDFD20462946FFF783FE04469F
:102D180030B902F02BFE3060204601E026207047D3
:102D280006B070BD00B583B002A9002341F8043D88
:102D3800FFF7D4FF18B90198C0F3432000E0FF2043
:102D480003B05DF804FB00BF70B503685C6B14F05A
:102D5800450FFAD05C6B14F0040F03D004229A6379
:102D6800032070BD5C6B14F0010F02D00120986342
:102D780070BD16460D460446184602F0F3FDA842FB
:102D880018D1236840F2FF529A63002002F0EEFD4A
:102D980010F4604F03D1000C3080002070BD10F497
:102DA800005F09D110F4804F08D110F4004F07D00C
:102DB8000F2070BD102070BD132070BD102070BD95
:102DC800002070BD30B587B004460D460022009241
:102DD800436A1B0401930D23029340230393049237
:102DE8004FF480630593006801A902F079FD20681B
:102DF800436B13F0450FFAD0436B13F0040F03D065
:102E080004238363032092E0436B13F0010F03D084
:102E18000123836318468AE002F0A4FD0D285DD1E2
:102E2800236840F2FF529A63002002F09FFD009051
:102E3800009BC3F343232B70009A3E4B1340002B97
:102E48004ED0009B002B4DDB009B13F0804F4BD1E5
:102E5800009B13F0005F49D1009B13F0805F47D1BE
:102E6800009B13F0006F45D1009B13F0806F43D196
:102E7800009B13F0807F41D1009B13F4000F3FD1DA
:102E8800009B13F4800F3DD1009B13F4001F3BD12E
:102E9800009B13F4801F39D1009B13F4002F37D106
:102EA800009B13F4802F35D1009B13F4003F33D1DE
:102EB800009B13F4803F31D1009B13F4004F2FD1B6
:102EC800009B13F4804F2DD1009B13F4005F2BD18E
:102ED800009B13F0080F29D01A2028E0102026E0C4
:102EE800002024E01C2022E0092020E00A201EE027
:102EF8000B201CE00C201AE00D2018E00E2016E034
:102F08000F2014E0102012E0112010E012200EE033
:102F180013200CE014200AE0152008E0162006E033
:102F2800172004E0182002E0192000E0002007B074
:102F380030BD00BF08E0FFFD30B587B0044601236F
:102F4800ADF80230006802F0C7FC002864D0236A9C
:102F5800042B23D00023019302220292C022039261
:102F680004934FF480630593206801A902F0B8FC2C
:102F78002046FFF735FD054600284FD102F0F6FC44
:102F8800A063042002F0F2FCE063082002F0EEFCEB
:102F980020640C2002F0EAFC606400E00025236A4B
:102FA800012B03D9062B01D0022B0FD10325029543
:102FB80040230393206801A902F092FC2046294689
:102FC8000DF10202FFF7C0FE054640BB236A042B41
:102FD80020D0BDF8023063621B04019309230293D9
:102FE800C0230393206801A902F07AFC2046FFF76A
:102FF800F7FC0546A0B902F0B9FCA062042002F073
:10300800B5FCE062082002F0B1FC20630C2002F05D
:10301800ADFC6063284603E0252001E000E0FFE7FF
:1030280007B030BD704700BF704700BF10B50446F9
:1030380003685A6B12F4807F09D04FF480729A6348
:10304800012383640023C364FFF7ECFF35E05A6B68
:1030580012F0020F05D002229A63C264FFF7E4FF60
:103068002BE05A6B12F0080F06D008229A6304234B
:10307800C364FFF7D9FF20E05A6B12F0200F06D087
:1030880020229A630623C364FFF7CEFF15E05A6B2C
:1030980012F0100F06D010229A630523C364FFF7BD
:1030A800C3FF0AE05A6B12F4007F06D04FF4007297
:1030B8009A630723C364FFF7B7FF2268D36B23F42F
:1030C800434323F03A03D36310BD00BF2DE9F00357
:1030D800034690F8202081F85620828CA1F85420CD
:1030E80090F82B2090090870C2F38300487002F012
:1030F80003028A7093F82A20CA7093F829200A716B
:1031080093F828204A7193F82F201201CA8093F867
:103118002E00CA8892B242EA1012CA8000F00F004C
:10312800087293F82D20D0094872C2F38010887273
:10313800C2F34010C872C2F300100873002048732D
:10314800186A012840D802F0030292020A6193F833
:103158002C000A6942EA80020A6193F83320086960
:1031680040EA92100861C2F3C200087502F0070233
:103178004A7593F8322050098875C2F38200C875E1
:1031880002F0030252000A7693F83140E2B2087E58
:1031980040EAD41008760C69013400208C64C864B5
:1031A8000D7E0235012606FA05F5A4FB0545C1E9A1
:1031B80012450F7AFFB2BE400E65A4FB068906FBD6
:1031C8000599C1E9128924E0022821D1DA6A02F0BE
:1031D8003F0212040A6193F833000A6942EA0022A6
:1031E8000A6193F83220086902430A6193F8312092
:1031F8000C690025013445F10005E80440EA543023
:10320800E4048C64C8644FF400700865002000E092
:103218002920C2F380144C7602F03F0252008A76CD
:103228001A6B8D7EC2F3C0142C438C7602F07F0299
:10323800CA7693F83720D4090C77C2F341144C7737
:10324800C2F382048C7702F003029200CA7793F8E3
:103258003620CC7F44EA9214CC77C2F3401481F82C
:103268002040002481F8214002F0010281F8222048
:1032780093F83520D40981F82340C2F3801481F8EB
:103288002440C2F3401481F82540C2F3001481F8A9
:103298002640C2F3810481F8274002F0030281F836
:1032A80028205A6BC2F3460281F82920012581F8AB
:1032B8002A5093F83B2081F82C2093F83A201202E8
:1032C800CA8593F83940CA8D92B22243CA8593F8C9
:1032D800382012060A6393F83F400A6B42EA044218
:1032E8000A6393F83E400A6B42EA04220A6393F8A1
:1032F8003D200C6B22430A6393F83C2081F834206C
:1033080093F8432081F8352093F8422012068A6307
:1033180093F841408A6B42EA04428A6393F840403A
:103328008A6B42EA04228A6393F847408A6B2243F5
:103338008A6393F8462091F83C4044EA121481F8D5
:103348003C4002F00F021202CA8793F84540CA8F28
:1033580092B22243CA875B6CC3F3460381F84030BC
:1033680081F84150BDE8F003704700BF70B58CB0DC
:1033780005460E4600248DF82F40047703F0B2FE70
:103388000594069407940894099476230A9308AB45
:1033980093E807008DE8070005AB0ECB286802F01C
:1033A80027FA2846FFF7C2FB8DF82F009DF82F302B
:1033B80013F0FF0F03D09DF82F00C0B231E028466C
:1033C800FFF7BAFD8DF82F009DF82F3013F0FF0F8F
:1033D80003D09DF82F00C0B223E028463146FFF7FE
:1033E80075FE8DF82F009DF82F3013F0FF0F08D1D0
:1033F800B6F85420284612040023FFF757FC8DF82E
:103408002F002B4653F8104B93E807008DE8070070
:10341800043595E80E00204602F0EAF99DF82F00E1
:10342800C0B20CB070BD00BF30B587B005460023F0
:1034380001930C2402944022039204934FF4806376
:103448000593006801A902F04BFA28462146FFF7C8
:10345800E1FA07B030BD00BF2DE9F0478CB0044653
:103468000E469146149FDDF854A002680021D162EF
:10347800026A022A05D14FEA592242EAC3594FF497
:1034880000770797102508954023099300230A938E
:103498004FF480630B93206807A902F021FA2046B5
:1034A8002946FFF7B7FA002840F0A9804FF0FF330C
:1034B800019307FB0AF302939023039302230493D7
:1034C8000023059301230693206801A902F06AFAF4
:1034D800BAF1010F02D91223089301E011230893CE
:1034E8000CA941F8149D206802F0FAF9BAF1010F0D
:1034F80020D920461221FFF78DFA054698B17FE0C2
:103508005B6B13F4004F0ED007E0206802F0D6F989
:1035180046F8280008F1010801E04FF00008B8F16A
:10352800070FF2D920362368596B40F22A3211422C
:10353800E6D01FE020461121FFF76CFA054698B146
:103548005FE05B6B13F4004F0ED007E0206802F0D9
:10355800B5F946F8280008F1010801E04FF0000825
:10356800B8F1070FF2D920362368596B40F22A6266
:103578001142E6D023685B6B13F4807F09D0BAF15F
:10358800010F06D9236A022B03D82046FFF74CFF08
:10359800054623685A6B12F0080F03D008229A6375
:1035A80004202EE05A6B12F0020F03D002259D630F
:1035B800284626E05A6B12F0200F03D020229A6387
:1035C80006201EE05A6B12F4007F0AD04FF40072F6
:1035D8009A63072015E002F071F946F8040B013FE1
:1035E80001E04FF0FF372068436B13F4001F01D050
:1035F800002FF0D140F2FF538363284601E000E03A
:10360800FFE70CB0BDE8F0872DE9F0478CB0044621
:103618000D469146149E159F00228DF803200168DF
:10362800CA62026A022A05D14FEA592242EAC359FC
:103638004FF4007607964FF01008CDF8208040230D
:10364800099300230A934FF480630B93206807A91A
:1036580002F046F920464146FFF7DCF9002840F021
:10366800E980012F02D91923089301E01823089350
:103678000CA941F8149D206802F032F9012F04D9F1
:1036880020461921FFF7C6F903E020461821FFF765
:10369800C1F9002840F0CE8006FB07F64FF0FF3353
:1036A8000193029690230393002304930593012327
:1036B8000693206801A902F075F9012F35D84FF05B
:1036C80000086DE05B6B13F4804F30D0C8EB060A3E
:1036D800BAF11F0F20D81AF0030F02D14FEA9A0A45
:1036E80003E04FEA9A0A0AF1010A4FF0000908E0DC
:1036F8002068294602F0E6F8043508F1040809F1C3
:103708000109D145F4D312E0206805EB890102F0E4
:10371800D9F809F1010901E04FF00009B9F1070FE3
:10372800F2D9203508F1200801E04FF0000823689D
:10373800596B40F21A321142C4D037E05B6B13F474
:10374800804F2DD0C8EB060ABAF11F0F20D81AF007
:10375800030F02D14FEA9A0A03E04FEA9A0A0AF1E4
:10376800010A4FF0000908E02068294602F0AAF88B
:10377800043508F1040809F10109D145F4D30FE033
:10378800206805EB890102F09DF809F1010901E0C3
:103798004FF00009B9F1070FF2D9203508F12008D8
:1037A8002368596B40F21A621142C7D023685B6BD9
:1037B80013F4807F07D0012F05D9236A022B02D882
:1037C8002046FFF731FE23685A6B12F0080F03D02A
:1037D80008229A6304202DE05A6B12F0020F02D0DF
:1037E8000220986326E05A6B12F0100F03D01022C3
:1037F8009A6305201EE05A6B12F4007F04D04FF440
:1038080000729A63072015E040F2FF529A6320463F
:103818000DF10301FFF7D6FA04E020460DF103018C
:10382800FFF7D0FA30B99DF80330063BDBB2012B25
:10383800F3D9FFE70CB0BDE8F08700BF08B5FFF784
:1038480071FA042803D0FF2803D1022008BD002004
:1038580008BD012008BD00BF30B4036A23F001038E
:103868000362036A4468826922F073020D682A437E
:1038780023F002038D682B430F4DA84205D005F5B0
:103888008065A84203D1012502E0012500E000255A
:103898005DB123F00803CD682B4323F0040324F41F
:1038A80040744D692C438D692C43446082614A6899
:1038B8004263036230BC70470000014010B4036AE1
:1038C800046A24F001040462846924F0F00444EAE0
:1038D800021223F00A031943826101625DF8044B66
:1038E800704700BF30B4046A24F01004046284698D
:1038F800056A24F4407444EA022222F470421B034D
:103908009BB21A4325F0A005090101F0A0010D435F
:103918008261056230BC704710B4036A23F010035B
:1039280003628469036A24F4704444EA023223F08F
:10393800A00343EA0111826101625DF8044B7047FC
:1039480030B4046A24F480740462C469056A24F0FB
:103958000304224322F0F0021B01DBB21A4325F4D0
:103968002065090201F420610D43C261056230BC83
:10397800704700BF30B4046A24F480540462C469F8
:10398800056A24F4407444EA022222F470421B03BC
:103998009BB21A4325F42045090301F420410D4345
:1039A800C261056230BC7047836823F0700341F040
:1039B80007010B438360704710B4846824F47F4484
:1039C80042EA032319430C4384605DF8044B7047B3
:1039D8002DE9F04104460E46036A23F4807303621E
:1039E800056AD0F80480C76927F073030F681F437E
:1039F80025F400738D6843EA0525204B984205D0CD
:103A080003F58063984203D1012302E0012300E01B
:103A180000235BB3F36833B1082B04D0184841F294
:103A28000D3102F07BFFB369B3F5007F05D023B1F8
:103A3800134841F20E3102F071FF7369B3F5807FCC
:103A480005D023B10E4841F20F3102F067FF25F48B
:103A58000065F36845EA032525F4806528F4405895
:103A6800736948EA0318B36948EA0318C4F804807C
:103A7800E7617368E3632562BDE8F08100000140F7
:103A8800940F01082DE9F04104460F46036A23F418
:103A980080530362056AD0F80480C66926F4E643B9
:103AA8000E6843EA062625F400538D6843EA053577
:103AB800114B984205D003F58063984203D1012346
:103AC80002E0012300E0002373B17B69B3F5807F36
:103AD80005D023B1094841F2533102F01FFF28F401
:103AE80080487B6948EA8318C4F80480E6617B68EB
:103AF80023642562BDE8F08100000140940F0108AD
:103B080038B505460C460268936823F07003496887
:103B18000B4323F0070321680B4393606368302B42
:103B280000F0BA8109D8102B00F06C81202B00F02E
:103B38008E81002B40F0D48135E1502B00F0A1801C
:103B480002D8402B50D038BD602B00F0EB80702B92
:103B580040F0C6810368A94A934217D0B3F1804F59
:103B680014D0A2F57C42934210D002F580629342B1
:103B78000CD002F58062934208D002F57842934255
:103B880004D09F4841F28A3102F0C8FEE3686BB165
:103B9800B3F5805F0AD0B3F5005F07D0B3F5405F97
:103BA80004D0974841F28B3102F0B8FEA368B3F510
:103BB800004F0AD04BB143B1022B06D00A2B04D0D8
:103BC8008F4841F28C3102F0A9FE23690F2B04D9EA
:103BD8008B4841F28D3102F0A1FE2868E168A268A5
:103BE8002369FFF7E9FE38BD0368844A93422FD062
:103BF800B3F1804F2CD0A2F57C42934228D002F535
:103C08008062934224D002F58062934220D002F56C
:103C1800784293421CD002F57052934218D002F5B4
:103C28008062934214D002F58062934210D0A2F5CC
:103C3800983293420CD002F58062934208D002F584
:103C48008062934204D06E4841F2993102F066FED8
:103C580023690F2B04D96A4841F29A3102F05EFEBB
:103C68002B68196A1A6A22F001021A622A68936993
:103C780023F0F003206943EA001393612B6819626B
:103C880038BD03685D4A93422FD0B3F1804F2CD0E2
:103C9800A2F57C42934228D002F58062934224D058
:103CA80002F58062934220D002F5784293421CD0FC
:103CB80002F57052934218D002F58062934214D0F4
:103CC80002F58062934210D0A2F5983293420CD04C
:103CD80002F58062934208D002F58062934204D0D4
:103CE800474841F2AF3102F019FEA368B3F5004F1F
:103CF8000AD04BB143B1022B06D00A2B04D040485E
:103D080041F2B03102F00AFE23690F2B04D93C4876
:103D180041F2B13102F002FE2868A1682269FFF77A
:103D2800CDFD38BD0368354A93421FD0B3F1804FAB
:103D38001CD0A2F57C42934218D002F580629342CF
:103D480014D002F58062934210D002F57842934273
:103D58000CD002F57052934208D0A2F594329342E7
:103D680004D0274841F2BD3102F0D8FDA368B3F56D
:103D7800004F0AD04BB143B1022B06D00A2B04D016
:103D88001F4841F2BE3102F0C9FD23690F2B04D947
:103D98001B4841F2BF3102F0C1FD2868A1682269C1
:103DA800FFF7BAFD38BD0368144A934200F09880C3
:103DB800B3F1804F00F09480A2F57C42934200F06A
:103DC8008F8002F58062934200F08A8002F580625B
:103DD800934200F0858002F57842934200F080809B
:103DE80002F5705293427BD0A2F59432934277D079
:103DF800034841F2CB3102F091FD38BD000001408B
:103E0800940F01080368374A934269D0B3F1804F91
:103E180066D0A2F57C42934262D002F5806293425A
:103E28005ED002F5806293425AD002F578429342FE
:103E380056D002F57052934252D0A2F59432934272
:103E48004ED0294841F2D23102F068FD38BD0368EE
:103E5800244A934244D0B3F1804F41D0A2F57C422A
:103E680093423DD002F58062934239D002F58062D8
:103E7800934235D002F57842934231D002F5705220
:103E880093422DD0A2F59432934229D0164841F29C
:103E9800D93102F043FD38BD0368124A93421FD05E
:103EA800B3F1804F1CD0A2F57C42934218D002F5A2
:103EB8008062934214D002F58062934210D002F5DA
:103EC800784293420CD002F57052934208D0A2F582
:103ED8009432934204D004484FF49F5102F01EFDDF
:103EE80038BD00BF00000140940F0108704700BFB3
:103EF80038B590F83830012B00F0CE820D460446D4
:103F0800012380F83830022380F839300B68B3F584
:103F1800805F16D0B3F5005F13D093B1102B10D08B
:103F2800202B0ED0302B0CD0402B0AD0502B08D091
:103F3800602B06D0702B04D0B34840F66D7102F0A8
:103F4800EDFC2268936823F47F4323F077039360A2
:103F58002B68402B00F0A1810ED8102B00F01B829B
:103F680003D8002B00F0EE818FE2202B00F03C827A
:103F7800302B00F0628288E2702B51D006D8502B8B
:103F880000F0EC80602B00F043817EE2B3F5805FA7
:103F980004D0B3F5005F00F0928076E223689B4A74
:103FA800934237D0B3F1804F34D0A2F57C4293428C
:103FB80030D002F5806293422CD002F580629342A1
:103FC80028D002F58062934224D002F580629342A1
:103FD80020D002F5704293421CD002F570529342F1
:103FE80018D002F58062934214D002F580629342A1
:103FF80010D0A2F5983293420CD002F58062934219
:1040080008D002F58062934204D07F4840F6797167
:1040180002F084FC2268936823F00703936034E27B
:1040280023687A4A934217D0B3F1804F14D0A2F58F
:104038007C42934210D002F5806293420CD002F584
:104048008062934208D002F57842934204D06E48C9
:1040580040F6827102F062FC6B68B3F5004F0AD03B
:104068004BB143B1022B06D00A2B04D0664840F668
:10407800847102F053FCAB686BB1B3F5805F0AD072
:10408800B3F5005F07D0B3F5405F04D05E4840F653
:10409800857102F043FCEB680F2B04D95A4840F6AF
:1040A800867102F03BFC2068A9686A68EB68FFF734
:1040B80083FC2268936843F077039360E5E1236803
:1040C800524A934217D0B3F1804F14D0A2F57C42E4
:1040D800934210D002F5806293420CD002F58062C0
:1040E800934208D002F57842934204D0464840F6FD
:1040F8009A7102F013FC6B68B3F5004F0AD04BB10C
:1041080043B1022B06D00A2B04D03F4840F69C71DD
:1041180002F004FCAB686BB1B3F5805F0AD0B3F56D
:10412800005F07D0B3F5405F04D0374840F69D7173
:1041380002F0F4FBEB680F2B04D9334840F69E716C
:1041480002F0ECFB2068A9686A68EB68FFF734FCAA
:104158002268936843F48043936096E123682B4A6E
:1041680093422FD0B3F1804F2CD0A2F57C429342DA
:1041780028D002F58062934224D002F580629342EF
:1041880020D002F5784293421CD002F57052934237
:1041980018D002F58062934214D002F580629342EF
:1041A80010D0A2F5983293420CD002F58062934267
:1041B80008D002F58062934204D0134840F6AC71EF
:1041C80002F0ACFB6B68B3F5004F0AD04BB143B1BA
:1041D800022B06D00A2B04D00B4840F6AF7102F030
:1041E8009DFBEB680F2B04D907484FF47B6102F065
:1041F80095FB20686968EA68FFF760FB2068502132
:10420800FFF7D2FB41E100BF940F01080000014015
:104218002368A24A93421FD0B3F1804F1CD0A2F565
:104228007C42934218D002F58062934214D002F582
:104238008062934210D002F5784293420CD002F586
:104248007052934208D0A2F59432934204D0944815
:1042580040F6BA7102F062FB6B68B3F5004F0AD002
:104268004BB143B1022B06D00A2B04D08C4840F640
:10427800BD7102F053FBEB680F2B04D9884840F658
:10428800BE7102F04BFB20686968EA68FFF744FBDF
:1042980020686021FFF788FBF7E023687F4A934294
:1042A8002FD0B3F1804F2CD0A2F57C42934228D076
:1042B80002F58062934224D002F58062934220D0B6
:1042C80002F5784293421CD002F57052934218D0FE
:1042D80002F58062934214D002F58062934210D0B6
:1042E800A2F5983293420CD002F58062934208D02E
:1042F80002F58062934204D0694840F6C87102F022
:104308000DFB6B68B3F5004F0AD04BB143B1022BDC
:1043180006D00A2B04D0624840F6CB7102F0FEFAB0
:10432800EB680F2B04D95E4840F6CC7102F0F6FA20
:1043380020686968EA68FFF7C1FA20684021FFF73A
:1043480033FBA2E02368554A93421FD0B3F1804F54
:104358001CD0A2F57C42934218D002F580629342A9
:1043680014D002F58062934210D002F5784293424D
:104378000CD002F57052934208D0A2F594329342C1
:1043880004D0474840F6D67102F0C8FA20680021E8
:10439800FFF70AFB79E02368404A93421FD0B3F144
:1043A800804F1CD0A2F57C42934218D002F580625F
:1043B800934214D002F58062934210D002F57842FD
:1043C80093420CD002F57052934208D0A2F5943271
:1043D800934204D0324840F6DC7102F09FFA20681C
:1043E8001021FFF7E1FA50E023682C4A93421FD0CE
:1043F800B3F1804F1CD0A2F57C42934218D002F54D
:104408008062934214D002F58062934210D002F584
:10441800784293420CD002F57052934208D0A2F52C
:104428009432934204D01E4840F6E27102F076FAC4
:1044380020682021FFF7B8FA27E02368174A93423B
:104448001FD0B3F1804F1CD0A2F57C42934218D004
:1044580002F58062934214D002F58062934210D034
:1044680002F5784293420CD002F57052934208D07C
:10447800A2F59432934204D0094840F6E87102F05C
:104488004DFA20683021FFF78FFA012384F839307C
:10449800002084F8380038BD022038BD00000140F3
:1044A800940F010870B504460D460368334A9342D9
:1044B8001FD0B3F1804F1CD0A2F57C42934218D094
:1044C80002F58062934214D002F58062934210D0C4
:1044D80002F5784293420CD002F57052934208D00C
:1044E800A2F59432934204D0254841F2280102F003
:1044F80015FA2B6863B1052B0AD0042B08D0062BBC
:1045080006D0072B04D01E4841F2290102F006FA12
:104518006B6893B1102B10D0202B0ED0302B0CD001
:10452800402B0AD0502B08D0602B06D0702B04D01B
:10453800134841F22A0102F0F1F994F83830012BBE
:1045480019D0012684F83860022384F839302046CF
:104558002946FFF7D5FA2268D36823F04003D360D1
:104568002268D36823F48043D36084F8396000203C
:1045780084F8380070BD022070BD00BF0000014003
:10458800940F0108704700BF704700BF10B5846BD7
:10459800012384F83930236A834202D10123237628
:1045A80010E0636A834202D1022323760AE0A36AF9
:1045B800834202D10423237604E0E36A834201D1D3
:1045C80008232376204605F0EDF90023237610BD55
:1045D800704700BF704700BF10B5044603681A69EA
:1045E80012F0020F17D0DA6812F0020F13D06FF032
:1045F80002021A610123037603689B6913F0030F13
:1046080002D005F0CFF904E0FFF7BEFF2046FFF720
:10461800DFFF0023237623681A6912F0040F19D0EC
:10462800DA6812F0040F15D06FF004021A61022341
:10463800237623689B6913F4407F03D0204605F056
:10464800B1F905E02046FFF79FFF2046FFF7C0FFBE
:104658000023237623681A6912F0080F19D0DA6844
:1046680012F0080F15D06FF008021A6104232376A0
:104678002368DB6913F0030F03D0204605F092F995
:1046880005E02046FFF780FF2046FFF7A1FF002343
:10469800237623681A6912F0100F19D0DA6812F01D
:1046A800100F15D06FF010021A61082323762368C3
:1046B800DB6913F4407F03D0204605F073F905E069
:1046C8002046FFF761FF2046FFF782FF002323768D
:1046D80023681A6912F0010F09D0DA6812F0010F85
:1046E80005D06FF001021A612046FFF74BFF2368DF
:1046F8001A6912F0800F09D0DA6812F0800F05D01D
:104708006FF080021A61204601F070F823681A6978
:1047180012F0400F09D0DA6812F0400F05D06FF0A0
:1047280040021A612046FFF755FF23681A6912F004
:10473800200F09D0DA6812F0200F05D06FF02002A0
:104748001A61204601F050F810BD00BF704700BF45
:1047580008B5806B012380F83930FFF7F7FF08BDF3
:104768000368454A904214D0B0F1804F13D0A2F5A7
:104778007C42904211D002F5806290420FD002F53F
:10478800806290420DD002F5784290420BD101220E
:104798000AE0012208E0012206E0012204E00122E9
:1047A80002E0012200E000221AB123F070034A68F7
:1047B8001343314A90422CD0B0F1804F2BD0A2F550
:1047C8007C42904229D002F58062904227D002F5BF
:1047D8008062904225D002F57842904223D002F5BB
:1047E8007052904221D002F5806290421FD002F5AB
:1047F800806290421DD0A2F5983290421BD002F5FB
:104808008062904219D002F58062904217D101224D
:1048180016E0012214E0012212E0012210E0012238
:104828000EE001220CE001220AE0012208E0012248
:1048380006E0012204E0012202E0012200E0002259
:104848001AB123F44073CA68134303608B68C362C8
:104858000B688362084B984205D003F58063984241
:1048680003D1012302E0012300E000230BB10B690F
:1048780003630123436170470000014000286ED0A4
:1048880010B504460368374A934236D0B3F1804FD7
:1048980033D0A2F57C4293422FD002F58062934236
:1048A8002BD002F58062934227D002F580629342B2
:1048B80023D002F5806293421FD002F570429342E2
:1048C8001BD002F57052934217D002F580629342D2
:1048D80013D002F5806293420FD0A2F5983293422A
:1048E8000BD002F58062934207D002F580629342B2
:1048F80003D01D48D92102F011F8A3685BB1102B31
:1049080009D0202B07D0402B05D0602B03D01648A8
:10491800DA2102F003F823694BB1B3F5807F06D0A2
:10492800B3F5007F03D01048DB2101F0F7FF94F8BE
:10493800393013F0FF0F05D1002384F838302046B2
:1049480002F006FD022384F83930214651F8040BA1
:10495800FFF706FF012384F83930002010BD01203D
:10496800704700BF00000140940F0108002871D073
:1049780010B504460368384A934237D0B3F1804FE4
:1049880034D0A2F57C42934230D002F58062934243
:104998002CD002F58062934228D002F580629342BF
:1049A80024D002F58062934220D002F570429342EF
:1049B8001CD002F57052934218D002F580629342DF
:1049C80014D002F58062934210D0A2F59832934237
:1049D8000CD002F58062934208D002F580629342BF
:1049E80004D01E4840F2F33101F098FFA36863B188
:1049F800102B0AD0202B08D0402B06D0602B04D0D7
:104A080016484FF47D7101F089FF236953B1B3F55E
:104A1800807F07D0B3F5007F04D0104840F2F5310D
:104A280001F07CFF94F8393013F0FF0F05D1002313
:104A380084F83830204602F007FD022384F8393024
:104A4800214651F8040BFFF78BFE012384F8393017
:104A5800002010BD0120704700000140940F01089C
:104A6800002871D010B504460368384A934237D0FD
:104A7800B3F1804F34D0A2F57C42934230D002F596
:104A8800806293422CD002F58062934228D002F5CE
:104A98008062934224D002F58062934220D002F5CE
:104AA800704293421CD002F57052934218D002F51E
:104AB8008062934214D002F58062934210D0A2F52E
:104AC800983293420CD002F58062934208D002F5E6
:104AD8008062934204D01E4840F2F65101F01EFF56
:104AE800A36863B1102B0AD0202B08D0402B06D026
:104AF800602B04D0164840F2F75101F00FFF2369EC
:104B080053B1B3F5807F07D0B3F5007F04D01048C8
:104B18004FF4BF6101F002FF94F8393013F0FF0F32
:104B280005D1002384F838302046FFF7DFF9022347
:104B380084F83930214651F8040BFFF711FE0123A0
:104B480084F83930002010BD012070470000014072
:104B5800940F0108002800F0C980F8B505460C46F6
:104B68000368634A93421FD0B3F1804F1CD0A2F56B
:104B78007C42934218D002F58062934214D002F529
:104B88008062934210D002F5784293420CD002F52D
:104B98007052934208D0A2F59432934204D05548FB
:104BA8004FF40F6101F0BAFE2368013B022B04D9D0
:104BB800504840F6F10101F0B1FEA368013B022B19
:104BC80004D94C4840F6F20101F0A8FEA369013B64
:104BD800022B04D9474840F6F30101F09FFE6368B1
:104BE80043B1022B06D00A2B04D0424840F6F40108
:104BF80001F094FE636943B1022B06D00A2B04D05E
:104C08003C4840F6F50101F089FEE36853B1042BF6
:104C180008D0082B06D00C2B04D0364840F6F601F5
:104C280001F07CFEE36953B1042B08D0082B06D0B1
:104C38000C2B04D02F4840F6F70101F06FFE2369D2
:104C48000F2B04D92B4840F6F80101F067FE236AC0
:104C58000F2B04D9274840F6F90101F05FFE95F8BB
:104C6800393013F0FF0F05D1002385F83830284676
:104C780002F0BCFB022385F839302A68936823F0D8
:104C880007039360294651F8040BFFF769FD28686C
:104C980083688269016A26681E4322F4407222F002
:104CA8000302A368A76943EA0723134323F47C4359
:104CB80023F0FC03E268E76942EA07221343276905
:104CC800226A120342EA0712134321F0AA0162681A
:104CD800646942EA04120A43866029688B612B687A
:104CE8001A62012385F839300020F8BD0120704789
:104CF80000000140940F010870B4046A24F0010414
:104D080004628469056A234EB0421CD0B0F1804F1A
:104D18001BD0A6F57C46B04219D006F58066B04295
:104D280017D006F58066B04215D006F57846B04231
:104D380013D006F57056B04211D0A6F59436B0429D
:104D48000FD101260EE001260CE001260AE001261B
:104D580008E0012606E0012604E0012602E001261B
:104D680000E000261EB124F00304224303E024F0EF
:104D7800030242F0010222F0F0021B01DBB21343EE
:104D880025F00A0201F00A0111438361016270BC37
:104D9800704700BF0000014070B504460D46164636
:104DA80003688B4A93422FD0B3F1804F2CD0A2F5E1
:104DB8007C42934228D002F58062934224D002F5C7
:104DC8008062934220D002F5784293421CD002F5CB
:104DD8007052934218D002F58062934214D002F5C3
:104DE8008062934210D0A2F5983293420CD002F51B
:104DF8008062934208D002F58062934204D07548DD
:104E080040F6DB3101F08AFD2B6843B1022B06D056
:104E18000A2B04D06F4840F6DC3101F07FFD6B6847
:104E2800013B022B04D96B4840F6DD3101F076FDD9
:104E3800AB6853B1042B08D0082B06D00C2B04D038
:104E4800644840F6DE3101F069FDEB680F2B04D9A8
:104E5800604840F6DF3101F061FD94F83830012BED
:104E680000F0B380012384F83830022384F8393005
:104E780086B9206829686A68EB68FFF73DFF2268F1
:104E8800936923F00C03936122689169AB680B4323
:104E9800936193E0042E35D123684D4A93421FD085
:104EA800B3F1804F1CD0A2F57C42934218D002F592
:104EB8008062934214D002F58062934210D002F5CA
:104EC800784293420CD002F57052934208D0A2F572
:104ED8009432934204D03F4840F6F63101F01EFD6B
:104EE800206829686A68EB68FEF7FCFC2268936909
:104EF80023F44063936122689369A96843EA012314
:104F080093615BE0082E2CD12368314A934217D075
:104F1800B3F1804F14D0A2F57C42934210D002F531
:104F2800806293420CD002F58062934208D002F569
:104F38007842934204D0274840F6064101F0EEFC3F
:104F4800206829686A68EB68FEF7FAFC2268D3696A
:104F580023F00C03D3612268D169AB680B43D3619A
:104F68002CE023681A4A934217D0B3F1804F14D02B
:104F7800A2F57C42934210D002F5806293420CD095
:104F880002F58062934208D002F57842934204D039
:104F9800104840F6164101F0C1FC206829686A688B
:104FA800EB68FEF7E7FC2268D36923F44063D3611A
:104FB8002268D369A96843EA0123D361012384F8ED
:104FC8003930002084F8380070BD022070BD00BF61
:104FD80000000140940F01082DE9F04104460E46F7
:104FE800036A23F010030362056AD0F80480876916
:104FF80027F4E6430F6843EA072725F020038D6866
:1050080043EA0515164B984205D003F5806398428C
:1050180003D1012302E0012300E00023BBB1F368C0
:1050280033B1082B04D00F4841F2FB1101F076FC94
:1050380025F08005F36845EA031525F0400528F4B6
:105048004068736948EA8308B36948EA8308C4F882
:105058000480A7617368A3632562BDE8F08100BF7F
:1050680000000140940F010890F83830012B00F03F
:105078002E8170B516460D460446012380F8383057
:1050880062B1042A0AD0082A08D00C2A06D0182AA5
:1050980004D0904840F63E4101F040FC2B68602B5C
:1050A80006D0702B04D08B4840F63F4101F036FC07
:1050B800AB6833B1022B04D086484FF4446101F049
:1050C8002DFC2B6933B1042B04D0824840F64141B2
:1050D80001F024FC022384F839300C2E00F2F08011
:1050E800DFE816F00D00EE00EE00EE005500EE00D1
:1050F800EE00EE008E00EE00EE00EE00BE0023682B
:10510800754A93422FD0B3F1804F2CD0A2F57C4240
:10511800934228D002F58062934224D002F580623F
:10512800934220D002F5784293421CD002F5705287
:10513800934218D002F58062934214D002F580623F
:10514800934210D0A2F5983293420CD002F58062B7
:10515800934208D002F58062934204D05D4840F63D
:10516800494101F0DBFB20682946FEF775FB226800
:10517800936943F0080393612268936923F0040359
:105188009361226891692B690B43936198E02368C6
:10519800514A93421FD0B3F1804F1CD0A2F57C42F4
:1051A800934218D002F58062934214D002F58062CF
:1051B800934210D002F5784293420CD002F5705217
:1051C800934208D0A2F59432934204D0414840F665
:1051D800584101F0A3FB20682946FFF7FDFE22682D
:1051E800936943F4006393612268936923F48063AD
:1051F800936122689369296943EA012393615FE017
:105208002368354A934217D0B3F1804F14D0A2F5E2
:105218007C42934210D002F5806293420CD002F592
:105228008062934208D002F57842934204D029481C
:1052380040F6674101F072FB20682946FEF7C8FB7B
:105248002268D36943F00803D3612268D36923F045
:105258000403D3612268D1692B690B43D3612FE022
:1052680023681D4A934217D0B3F1804F14D0A2F59A
:105278007C42934210D002F5806293420CD002F532
:105288008062934208D002F57842934204D01148D4
:1052980040F6764101F042FB20682946FEF7F2FB12
:1052A8002268D36943F40063D3612268D36923F485
:1052B8008063D3612268D369296943EA0123D361F2
:1052C800012384F83930002084F8380070BD0220AA
:1052D800704700BF940F01080000014070B50446F4
:1052E8000E461546254B98422FD0B0F1804F2CD052
:1052F800A3F57C43984228D003F58063984224D0D4
:1053080003F58063984220D003F5784398421CD077
:1053180003F57053984218D003F58063984214D06F
:1053280003F58063984210D0A3F5983398420CD0C7
:1053380003F58063984208D003F58063984204D04F
:105348000F4841F27E2101F0E9FA66B1042E0AD035
:10535800082E08D00C2E06D0182E04D0084841F28A
:105368007F2101F0DBFA0123B340226A22EA03031A
:105378002362236AB5401D43256270BD00000140C9
:10538800940F010838B504460D4603682D4A934228
:1053980012D0B3F1804F0FD0A2F57C4293420BD0CC
:1053A80002F58062934207D002F58062934203D0EF
:1053B80002F57842934206D135B3042D24D0082D46
:1053C80022D00C2D20D0204A934202D1E5B1042DE1
:1053D8001AD01E4A934200D1B5B11D4A934200D15A
:1053E80095B11C4A934202D175B1042D0CD01A4ACA
:1053F800934200D145B1194A934200D125B11848CA
:1054080040F2544101F08AFA206829460122FFF748
:1054180065FF23680B4A934205D002F580629342E8
:1054280003D1012202E0012200E000221AB15A6CE5
:1054380042F400425A642268136843F0010313607F
:10544800002038BD000001400040014000440140F8
:105458000048014000180040001C004000200040A7
:10546800940F0108F8B504460D4616461F46036812
:10547800674A934212D0B3F1804F0FD0A2F57C4215
:1054880093420BD002F58062934207D002F5806206
:10549800934203D002F57842934206D135B3042DE6
:1054A80024D0082D22D00C2D20D05A4A934202D164
:1054B800E5B1042D1AD0584A934200D1B5B1574AE4
:1054C800934200D195B1564A934202D175B1042D49
:1054D8000CD0544A934200D145B1534A934200D16B
:1054E80025B152484FF4E16101F018FA2368484A9F
:1054F800934217D0B3F1804F14D0A2F57C42934267
:1055080010D002F5806293420CD002F5806293427B
:1055180008D002F57842934204D0444840F2097119
:1055280001F0FCF994F83930DBB2022B6CD094F816
:105538003930DBB2012B05D10EB9002F66D1022319
:1055480084F839300C2D53D8DFE805F00752525251
:105558001A5252522D5252524000236A344ADA6388
:10556800236A344A9A642168206A343132463B46B9
:10557800FBF7EAFE2268D36843F40073D36037E090
:10558800636A2B4ADA63636A2A4A9A642168606A02
:10559800383132463B46FBF7D7FE2268D36843F4DE
:1055A8008063D36024E0A36A214ADA63A36A214AAC
:1055B8009A642168A06A3C3132463B46FBF7C4FE38
:1055C8002268D36843F40063D36011E0E36A184AA1
:1055D800DA63E36A174A9A642168E06A403132461E
:1055E8003B46FBF7B1FE2268D36843F48053D3608F
:1055F800206829460122FFF771FE2268136843F0EC
:10560800010313600020F8BD0220F8BD0120F8BD99
:1056180000000140004001400044014000480140B2
:1056280000180040001C004000200040940F0108B2
:10563800954500085947000838B504460D460368E3
:105648002B4A93421FD0B3F1804F1CD0A2F57C4265
:10565800934218D002F58062934214D002F580621A
:10566800934210D002F5784293420CD002F5705262
:10567800934208D0A2F59432934204D01D4840F6D4
:10568800D51101F04BF915B1042D0BD015E02068A8
:1056980000210122FFF722FE2268D36843F00203AB
:1056A800D3601EE0206804210122FFF717FE22685C
:1056B800D36843F00403D36013E02068002101227B
:1056C800FFF70CFE206804210122FFF707FE22687D
:1056D800D36843F00203D3602268D36843F004031D
:1056E800D3602268136843F001031360002038BDBB
:1056F80000000140940F010838B504460D460368C0
:10570800374A934227D0B3F1804F24D0A2F57C4288
:10571800934220D002F5806293421CD002F5806249
:10572800934218D002F58062934214D002F5806249
:10573800934210D002F5704293420CD002F5705299
:10574800934208D0A2F59432934204D025484FF4EE
:10575800CB6101F0E3F82B6893B1102B10D0202B0C
:105768000ED0302B0CD0402B0AD0502B08D0602BF9
:1057780006D0702B04D01B4840F2596101F0CEF8D6
:105788006B68802B05D023B1164840F25A6101F0AE
:10579800C5F894F83830012B1FD0012284F838203E
:1057A800022384F8393021684B6823F070034B607A
:1057B800216848682B6803434B6021688B6823F095
:1057C80080038B60216888686B6803438B6084F86A
:1057D8003920002084F8380038BD022038BD00BFC9
:1057E80000000140C40F0108704700BF704700BFA8
:1057F80084B02DE9F047054609A880E80E002D4B36
:105808009D4203D02C48DD2101F088F8DDF824A062
:10581800BAF1000F06D0BAF5005F03D02648DE21A2
:1058280001F07CF80A9C34B1B4F5806F03D02248AB
:10583800DF2101F073F8DDF82C90B9F1000F06D0E4
:10584800B9F5007F03D01C48E02101F067F80C9EF1
:105858004EB1B6F5006F06D0B6F5805F03D0164896
:10586800E12101F05BF8DDF83480B8F1000F06D0D3
:10587800B8F5804F03D01048E22101F04FF80E9F91
:10588800FF2F03D90C48E32101F048F84AEA040342
:1058980049EA0303334348EA03033B436A6822F4B3
:1058A800FD4222F07F0213436B600020BDE8F04701
:1058B80004B07047002C0140F80F0108D0F88000B0
:1058C800704700BF0B68C0F880300020704700BFE9
:1058D8000323036000207047006800F0030070474E
:1058E80038B505460C464B683F2B04D91C484FF485
:1058F800B47101F013F8A36843B1402B06D0C02B54
:1059080004D0174840F2691101F008F8E36853B170
:10591800B3F5807F07D0B3F5007F04D010484FF46B
:10592800B57100F0FBFF23693BB1B3F5806F04D07C
:105938000B4840F26B1100F0F1FF2368AB6061681F
:10594800A3681943E3680B43226943EA0201EA6842
:1059580022F47F6323F00F030B43EB60002038BD74
:10596800F80F01080069C0B2704700BF10B582B0D7
:1059780000230193044650B1042808D0082806D013
:105988000C2804D005484FF4CB7100F0C7FF044B36
:1059980023440193019B186802B010BDF80F010859
:1059A800142C014038B505460C464B68B3F1007F0E
:1059B80004D32A4840F2AB1100F0B0FFA36803B348
:1059C800102B1ED0202B1CD0302B1AD0402B18D0D7
:1059D800502B16D0602B14D0702B12D0802B10D0E7
:1059E800902B0ED0A02B0CD0B02B0AD0C02B08D0F7
:1059F800D02B06D0E02B04D018484FF4D67100F015
:105A08008DFFE36833B1022B04D0144840F2AD1186
:105A180000F084FF236933B1042B04D00F484FF4FE
:105A2800D77100F07BFF6369012B04D90B4840F262
:105A3800AF1100F073FF23686B626368AB62A26802
:105A4800E3681A432369134362691A43EB6A23F034
:105A5800F7031343EB62002038BD00BFF80F0108BD
:105A68000C4B01E0013B10D00269002AFADA036905
:105A780043F001030361074B01E0013B07D00269D2
:105A880012F0010FF9D1002070470320704703205E
:105A9800704700BF400D030084B010B5044603A84A
:105AA80080E80E00089B012B18D1A36B23F48033E8
:105AB800A363E36823F4840323F04003E360E3680B
:105AC80023F44013E3600F9B012B03D1E36843F4F5
