:020000040800F2
:10000000000002205D020008694400086B440008FB
:100010006D4400086F4400087144000800000000AF
:10002000000000000000000000000000A70200081F
:100030007344000800000000AB020008754400088B
:10004000C1020008C1020008C1020008C102000884
:10005000C1020008C1020008C1020008C102000874
:10006000C1020008C1020008C1020008C102000864
:10007000C1020008C1020008C1020008C102000854
:1000800085440008C102000891440008C10200082C
:10009000C1020008C1020008C1020008C102000834
:1000A000C1020008C1020008C1020008C102000824
:1000B0009D440008A9440008C1020008C1020008CC
:1000C000C1020008C1020008C1020008C102000804
:1000D000C1020008C1020008C1020008C1020008F4
:1000E000C1020008C1020008C1020008C1020008E4
:1000F000C1020008C1020008C1020008C1020008D4
:10010000C1020008B5440008C1020008C10200088D
:10011000C1020008C1020008C1440008C102000871
:10012000CD440008C1020008C1020008D9440008FB
:10013000C10200080000000000000000C102000829
:10014000C1020008C1020008C1020008E54400081D
:10015000C1020008C1020008C1020008C102000873
:10016000C1020008C1020008C1020008C102000863
:10017000C1020008C10200080000000000000000E9
:10018000C1020008C102000807B503F0A7FE294B11
:10019000294A93420BD293E806000C3353F8040C1F
:1001A0009042F5D951F8044B42F8044BF8E7234B41
:1001B000234A934209D253F8082B53F8041C8A426D
:1001C000F6D2002042F8040BF9E704F083FD6846FC
:1001D00001A903F053FE1B4C1B4BE41AA41000258D
:1001E0001E46A54204DA56F8253098470135F8E74F
:1001F000164B174CE41AA41000251E46A54204DA3B
:1002000056F8253098470135F8E79DE8030005F0DA
:10021000F1F8104C104BE41A0646A4101D46002CB1
:1002200004DD013C55F824309847F8E7304603F0E8
:10023000FEFD00BFC4020008DC020008DC0200086A
:10024000EC020008EC020008EC020008EC020008D6
:10025000FC02000804030008FC02000814480047E0
:10026000FEE71EF0040F0CBFEFF30880EFF30980E8
:100270007146104A1047FEE7FEE71EF0040F0CBF60
:10028000EFF30880EFF3098071460B4A1047FEE751
:100290001EF0040F0CBFEFF30880EFF309807146E6
:1002A000064A1047FEE7FEE7FEE7FEE7704700005C
:1002B00089010008770200088F020008A5020008E3
:0202C000FEE757
:1002C400E4B6000800000020DC030020E4B60008C7
:1002D4000000001000000010E003002010160020B1
:1002E4000000001000000010695400089D5A000826
:1002F400958200085983000879540008D95A0008E7
:1003080010B5044601F056FC4FF47A73B0FBF3F0D5
:1003180000F01CFB4FF0FF302146002200F0DAFA13
:10032800002010BD08B50B4B1A6842F400721A6021
:100338001A6842F480621A601A6842F480721A607D
:10034800032000F0B5FA0F20FFF7DAFF05F099FD5A
:10035800002008BD003C0240024A136801331360C4
:10036800704700BF080B0020014B1868704700BF9A
:10037800080B002013B50190FFF7F6FF0446FFF7BE
:10038800F3FF019B001B9842F9D302B010BD000097
:1003980010B50446002800F09E80036C23B943641E
:1003A80080F83C3003F038FE236CDB0600F18E80C9
:1003B800236C23F4885323F0020343F002032364DD
:1003C800464B5A6822F440325A60596862680A43B8
:1003D8005A60236821695A6822F480725A605A6800
:1003E80042EA01225A605A6822F040725A605968FB
:1003F800A2680A435A609A6822F400629A6099686F
:10040800E2680A439A603649A26A8A420ED099681D
:1004180021F07061996099680A439A609A6822F09D
:1004280040529A609968E26A0A4306E09A6822F0A4
:1004380070629A609A6822F040529A609A68A1693C
:1004480022F002029A609A6842EA41029A60226A9D
:100458009AB15A6842F400625A605A6822F46042BB
:100468005A604FF4604191FAA1F1626A5868B1FA92
:1004780081F1013A8A40024302E05A6822F400629C
:100488005A60DA6A22F47002DA62E269D96A013AD9
:1004980041EA0252DA629A68216B22F400729A6089
:1004A8009A6842EA41229A609A68616922F48062F5
:1004B8009A609A68002042EA81229A606064236CFC
:1004C80023F0030343F00103236400E00120002329
:1004D80084F83C3010BD012010BD00BF002301404E
:1004E8000100000F37B513460022019290F83C2016
:1004F800012A04460D4662D00168012280F83C209A
:100508008A68D20703D58A68D00712D44CE08A6873
:100518002C4842F001028A602B4A1268B2FBF0F2C2
:1005280002EB42020192019A002AECD0019A013AA8
:10053800F8E7226CA06B22F4E06222F0010242F498
:10054800807222644A68520541BF226C22F44052EC
:1005580042F480522264226C12F480521CBF626CF6
:1005680022F006026264002284F83C20174AC26323
:10057800174A0264174A82646FF002020A604A68E6
:1005880042F080624A608A6842F480728A604C3124
:100598002A4600F0F3FA104B5B6813F01F0F23682C
:1005A80004D00E4A934201D0002009E0986810F068
:1005B8004050F9D19A6842F080429A6000E00220E7
:1005C80003B030BD40420F0008000020E9050008D4
:1005D8004B0600087F070008002301400020014067
:1005E800836B1A6C12F0500F10B524D11A6C42F4B8
:1005F80000721A641A68916811F0405F17D19969FE
:10060800A9B9D16A11F4700F02D0916849050ED4C6
:10061800516821F0200151601A6C22F480721A642A
:100628001A6CD2045EBF1A6C42F001021A641846B2
:1006380005F0B8FB10BD9B6BBDE810409B6C1847DC
:10064800704708B5806BFFF7FBFF08BD704738B5EA
:10065800036819685A688D0704462BD5900629D572
:10066800226CD1065EBF226C42F4007222649A6842
:1006780012F0405F17D1A269AAB9DA6A12F4700FB2
:1006880002D09A6852050ED45A6822F020025A60A5
:10069800236C23F480732364236CDB045EBF236C18
:1006A80043F001032364204605F07CFB23686FF0C8
:1006B80012021A60236819685A684D0732D5100665
:1006C80030D5226CD1065EBF226C42F400522264FF
:1006D8009A6812F4401F1ED19A6B12F4401F02D080
:1006E8009A68520517D45A68550514D49A6812F0B6
:1006F800405F10D1A26972B95A6822F080025A602C
:10070800236C23F480532364236CD8055EBF236CC9
:1007180043F001032364204600F0C8F823686FF013
:100728000C021A60236819685A68C9070FD555065C
:100738000DD51B68D8070AD5236C43F4803323648E
:100748002046FFF783FF23686FF001021A602368D1
:1007580019685A6889060DD552010BD5626C6FF07D
:10076800200542F00202626420461D6005F01CFB71
:1007780023681D6038BD806B08B540230364436C53
:1007880043F00403436405F00FFB08BDF7B50023ED
:10079800019390F83C30012B63D00D688A680123DF
:1007A800092D80F83C30ACB203680FD904EB44063D
:1007B800DF681E3E4FF0070E0EFA06FE27EA0E0708
:1007C800DF60DF68B2403A43DA600DE01F6905EB8D
:1007D800450E072606FA0EF627EA06061E611E696A
:1007E80002FA0EF232431A614A68062A4FEA820177
:1007F8000CD80A445E6B053A1F21914026EA010194
:100808005963596B94400C435C631AE00C2A0CD86A
:100818000A441E6B233A1F21914026EA01011963FD
:10082800196B94400C431C630BE00A44DE6A413A9E
:100838001F21914026EA0101D962D96A94400C43EC
:10084800DC62164A934204D0002380F83C301846F4
:1008580022E0122D07D1124A536843F480035360F3
:1008680001E0022018E0A5F11003012BECD80C4A96
:100878005368102D43F400035360E5D1094B0A4A2D
:100888001B68B3FBF2F20A2353430193019B002B2D
:10089800DAD0019B013BF8E703B0F0BD002001402E
:1008A800002301400800002040420F00704700006C
:1008B800074AD36823F4E0631B041B0C43F0BF63AF
:1008C80043F4003300F0070043EA0023D360704785
:1008D80000ED00E0154BDB68C3F3022370B5C3F1EC
:1008E80007051C1D042D28BF0425062C8CBF033BBF
:1008F8000023012404FA03F6AC40013C013E2140E8
:1009080099403240002842EA01024FEA0212AFBF82
:1009180000F1604000F00F00054BD2B2A5BF00F512
:100928006140D2B21A5480F8002370BD00ED00E097
:1009380014ED00E04109012300F01F00024A834042
:1009480042F82130704700BF00E100E00138B0F103
:10095800807F3FBF064B074A5860F0213FBF82F8AF
:10096800231000200722986034BF1A6001207047C6
:1009780010E000E000ED00E0044B1A6804280CBF0A
:1009880042F0040222F004021A60704710E000E00E
:10099800704708B5FFF7FCFF08BD10B5044668B1FD
:1009A800037903F0FF0213B9427103F0E9FB022354
:1009B8002371002001232061237110BD012010BD87
:1009C8004379012B10B54FF0020325D0037103685A
:1009D80001221C6842718A4022431A6059B9196879
:1009E8001A684C0714D502F03802382A10D15A6810
:1009F80042F001020BE019681A68490308D502F4AD
:100A08006012B2F5601F03D15A6842F002025A60C0
:100A18000123037100234371184610BD7047036812
:100A28005A6B910410B504460ED50422027102696E
:100A380042F0010202614FF400525A631A6822F42C
:100A480080521A60FFF7EAFF23685A6B920011D5AB
:100A580004222271226942F0020222614FF0005200
:100A68005A631A6822F0805220461A60BDE8104086
:100A780000F032B810BD4379012B70B54FF0020376
:100A880016D004680371266840F6FE73934026EA80
:100A980003050AC90B4393402B4323602168C023F5
:100AA800934021EA03032360012303710023437168
:100AB800184670BD13B5002400680194019011B95F
:100AC8000199083101E0019914310A440192019A0F
:100AD8000020136002B010BD704700000368DAB24E
:100AE80023F47F7323F003031821103AB2FBF1F2C9
:100AF8000449032A88BF0433895C03654165006D96
:100B0800704700BFB8AA000838B50446002831D09D
:100B18000168194A022380F835300B6880681A404A
:100B280063681843E36818432369184363691843E3
:100B3800A3691843E3691843236A03431343626AAA
:100B4800042A01BFE06A256B284303430B604B6905
:100B5800042A23F0070343EA020304BFA26A1343EB
:100B68004B612046FFF7BAFF00200123E06484F8B8
:100B7800353038BD012038BD3F8010F030B590F8D1
:100B88003440012C4FF0020423D080F8354004682B
:100B9800012580F83450256825F001052560256871
:100BA80025F48025256063608368402B0BBFA26015
:100BB800A160E160E260236843F01E03236063697B
:100BC80043F080036361236843F00103236000203E
:100BD80030BD204630BD000070B5056D416D2A68F6
:100BE80008238B401342044615D0026811684E074B
:100BF80011D5116821F004011160AB60C36C43F09A
:100C08000103C364042380F83530002380F83430AE
:100C1800836C03B19847616D454B2A688B4013423A
:100C280016D022685169090612D5516921F0800150
:100C38005161AB60E36C43F00203E364042384F87E
:100C48003530002384F83430A36C0BB12046984724
:100C5800616D384B2A688B40134216D022681168A0
:100C68008E0712D5116821F002011160AB60E36CA8
:100C780043F00403E364042384F83530002384F844
:100C88003430A36C0BB120469847616D2B68102255
:100C98008A401A421ED02368196808071AD51968AD
:100CA800490308D5AA601A6812030CD51B681E03ED
:100CB8000CD5412308E01968C8055EBF196821F002
:100CC80008011960AA60312384F83530236C0BB110
:100CD80020469847616D2B6820228A401A4226D008
:100CE80023681968C90622D519684E0309D5AA6070
:100CF8001A68150301D4636C14E01B68180316D531
:100D08000FE01968C9055EBF196821F01001196064
:100D1800AA60E36CE364112384F83530002384F877
:100D28003430E36B1BB12046BDE87040184770BDF6
:100D380001008000040080002DE9F3410F680022C3
:100D48000123934003EA07059D4240F0D2804C6896
:100D580024F0100CBCF1020F14D14FEAD20E00EBB4
:100D68008E0E02F00706DEF82030B6004FF00F08AE
:100D780008FA06F823EA08080B69B34048EA0303AF
:100D8800CEF820304FEA420E0323066803FA0EF32A
:100D9800DB4303EA060804F0030606FA0EF60CF134
:100DA800FF3C48EA0606BCF1010F066011D88668C8
:100DB80003EA060CCE6806FA0EF64CEA06068660CA
:100DC800466826EA050CC4F3001696404CEA060667
:100DD8004660C66803EA060C8B6803FA0EF64CEA0E
:100DE8000603C360E30040F18480454E002301936D
:100DF800D6F844E04EF4804EC6F844E0766C06F42B
:100E080080460196019E22F0030606F1804606F50B
:100E18009C3602F0030CD6F808804FEA8C0C4FF091
:100E28000F0E0EFA0CFE28EA0E0EDFF8DC804045A5
:100E380031D003F1804303F5013398421ED003F506
:100E4800806398421CD003F5806398421AD003F55A
:100E58008063984218D003F58063984216D003F552
:100E68008063984214D003F58063984212D003F54A
:100E7800806398420CBF082309230CE001230AE091
:100E8800022308E0032306E0042304E0052302E02C
:100E9800062300E0072303FA0CF343EA0E03DFF806
:100EA80064E0B360DEF80030EE4314F4803F14BF12
:100EB8002B433340CEF80030DEF80430DFF844E04E
:100EC80014F4003F14BF2B433340CEF80430DEF84F
:100ED800083014F4801F14BF2B433340CEF8083079
:100EE800DEF80C30A40254BF06EA03051D43054B87
:100EF800DD600132102A7FF423AF02B0BDE8F08133
:100F080000380240003C01400000024003691942D9
:100F180014BF01200020704702B90904816170479D
:100F28002DE9F04106468AB0002864D003233446F0
:100F380080F8813303F0A6FC54F8100B02F035FB5F
:100F48000FCC6D460FC50FCC0FC594E8030085E89C
:100F5800030006F1040898E80E00306802F0E4FA8D
:100F68000021306802F027FB06F1100432463146B2
:100F78000020012381F83800C887013081F8393012
:100F88000F284FF0000381F83B300B644B64CB64AF
:100F980001F11C01EDD1D6F800E082F8DC3103F153
:100FA8004001D3870EEB8101013300270F2B82F814
:100FB800DD7182F8DF71C2F8E471C2F8E871C2F835
:100FC800F0714F6002F11C02E7D10FCC6D460FC5DE
:100FD8000FCC0FC594E8030085E80300704698E835
:100FE8000E0002F029FB012386F88133306802F0F5
:100FF800A0FE384600E001200AB0BDE8F08190F874
:101008008033012B10B504460CD0012380F88033BF
:10101800006802F082FE206802F0C1FA002084F81D
:10102800800310BD022010BD2DE9F04F076887B07E
:101038000446384602F0B5FE002840F032822068A7
:1010480002F083FE002800F02C82206802F07DFE6A
:10105800820748BF2268206842BF536903F0020331
:10106800536102F072FE10F400204DD0206802F0A7
:1010780070FE07F530668046A2460025B8F1000FDD
:1010880043D018F0010F38D05FFA85FB2068594625
:1010980002F06FFE10F0010F814621D00123B360EA
:1010A8002369012B0CD13369DAF8E421C3F3120365
:1010B800D31ACAF8F431DAF8E8311A44CAF8E82140
:1010C8005946204603F017FC2169012908D13DB98A
:1010D800D4F8F03123B9206804F5617202F080FE7B
:1010E80019F0080F04D0204603F0FEFB0823B36074
:1010F80019F0100F1CBF1023B36001354FEA5808D0
:1011080020360AF11C0AB9E70546206802F01DFEE0
:10111800430340F1A680206802F023FE264682465B
:1011280007F510690025BAF1000F00F09A801AF04F
:10113800010F00F08F805FFA85FB2068594602F0A6
:1011480021FE10F0010F804620D00122D7F8343854
:1011580002FA05F023EA0003C7F834382369C9F80E
:101168000820934201BF726C336C9B187364594614
:10117800204603F0C9FB2169012907D135B9E36C81
:1011880023B9206804F5617202F02AFE18F0080FEE
:101198001CBF0823C9F8083018F0100F1CBF102313
:1011A800C9F8083018F0400F1CBF4023C9F80830B0
:1011B80018F0020F1CBF0223C9F8083018F0800F7E
:1011C80048D0F36C326DD4F800C0C2EB0308336C1E
:1011D800984528BF984608F103039B0803930CF52C
:1011E800106303EB45130493049B039A9B699BB21A
:1011F80093420BD8B8F1000F2CD1DCF83428012326
:10120800AB4022EA0303CCF8343823E0326DF36CA8
:101218009A42EFD2002BEDD0C2EB0308336CCDF825
:1012280014C0984528BF984608F103039B08039308
:10123800237C009360461FFA88F3716C5A4602F0CB
:10124800CCFB736CDDF814C043447364336D4344C2
:101258003365C9E701354FEA5A0A1C3609F12009F6
:1012680061E7206802F071FD00280DDAD7F804382C
:1012780023F00103C7F80438204603F079FB2268FD
:10128800536903F000435361206802F05EFD0605D0
:101298000BD5D7F80838D80702D5204603F050FBFD
:1012A8002268536903F400635361206802F04DFD1E
:1012B800C10443D507F500667368206823F001036D
:1012C8007360002102F08EF9606807F51063002250
:1012D800824206D0FF2199600132C3F808122033F8
:1012E800F6E74FF0FF33B361F36943F00113F3619D
:1012F800236B53B1D6F8843043F00B03C6F884301F
:10130800736C43F00B03736407E0736943F00B03DA
:101318007361336943F00B033361D7F800382068F1
:10132800217C23F4FE63C7F8003804F5617202F0EB
:1013380057FD2268536903F480535361206802F013
:1013480004FD820423D5206802F02FFD2068C368BD
:1013580023F47053C36002F005FA236838B94FF4D8
:1013680000726261DA68E06042F4105206E003221B
:10137800E26040226261DA6842F4A052DA602046F4
:1013880003F0CEFA2268536903F4005353612068CE
:1013980002F0DBFCC3063ED52268936923F01003F4
:1013A8009361D7F82080C8F34343022B08F00F0657
:1013B8001AD147F6F07208EA02023AB31C2303FB7B
:1013C80006464FEA121842463846D6F8E81102F0A7
:1013D80035FCD6F8E831D6F8F42143444244C6F83F
:1013E800E831C6F8F42111E0062B0FD1384604F590
:1013F8006171082202F022FC1C2303FB0646C8F395
:101408000A18D6F8F4314344C6F8F43122689369CF
:1014180043F010039361206802F097FC070707D593
:10142800204603F079FA2268536903F008035361F0
:10143800206802F08AFCC60208D52046E9B203F00B
:101448009FFA2268536903F480135361206802F0FD
:101458007CFC800208D52046E9B203F08DFA2268A8
:10146800536903F400135361206802F06EFC4100D5
:1014780007D5204603F088FA2268536903F08043B1
:101488005361206802F061FC42070AD523685D6851
:101498006B0702D5204603F07BFA23685A68154388
:1014A8005D6007B0BDE8F08F90F88033012B10B570
:1014B800044609D0012380F88033006802F01DFC3F
:1014C800002084F8800310BD022010BD70B5CDB295
:1014D80015F0800F04464FF01C0601F07F0015BF81
:1014E80006FB004106FB0141383101F5EE71C0B23F
:1014F800ED0908704D708A60CB7005B1C880022B69
:1015080004BF00230B7194F88033012B09D0012309
:1015180084F88033206802F040F9002084F88003C2
:1015280070BD022070BDCBB213F0800F10B54FF024
:101538001C02044601F07F0015BF02FB004102FBBC
:101548000141383101F5EE71DB0908704B7094F8F0
:101558008033012B09D0012384F88033206802F0FE
:101568005DF9002084F8800310BD022010BD70B51D
:10157800044601F07F051C2000FB054000F5F471CE
:10158800C0F8F0310023C0F8E821C0F8F43180F841
:10159800DD3180F8DC512369012B08BF4A6094F8DB
:1015A8008023012A13D01C21012201FB054184F864
:1015B800802301F5EE71DAB2206815B902F065F9F9
:1015C80001E002F01FFA002084F8800370BD0220B9
:1015D80070BD01F07F011C2303FB0100B0F8F4018A
:1015E800704738B5044601F07F051C2000FB054014
:1015F800C364002303650123426480F8393080F80E
:1016080038502369012B08BF826494F88023012A8B
:1016180012D01C21012201FB054184F880233831B6
:10162800DAB2206815B902F030F901E002F0EAF9FF
:10163800002084F8800338BD022038BD38B5CBB20D
:1016480013F0800F01F07F054FF01C0215BF02FB5D
:10165800050102FB0101383101F5EE710122DB09B8
:10166800EDB28A700D704B7090F880339342044647
:101678000FD080F88023006802F0EEFA2DB92068B8
:10168800217C04F5617202F0ABFB002084F8800332
:1016980038BD022038BD38B5CBB213F0800F0546EF
:1016A8004FF01C0201F07F0015BF02FB005102FB46
:1016B8000151383101F5EE71DB0900248C70087096
:1016C8004B7095F88033012B09D0012385F88033BE
:1016D800286802F0F3FA85F88043204638BD0220D6
:1016E80038BD70B50468606A19B940EA0243A3625C
:1016F80016E0A36A00EB134300204D1E461CC0B23F
:10170800A84207D2403004EB8000406803EB104346
:101718003046F2E73F3104EB810443EA0243636059
:10172800002070BD03680020596270470368F7B550
:10173800D907044603D423689A0737D484E0A54B15
:101748009A6802F00C02042A07D09A6802F00C0288
:10175800082A0BD15B685B0208D59E4B1B689F0368
:10176800E9D56368002BE6D1012030E19A4B227954
:101778001A7063686BB1FEF7F7FD0546954B1B6859
:101788009E03D8D4FEF7F0FD401B6428F6D9032049
:101798001DE1FEF7E9FD05468E4B1B689803CAD587
:1017A800FEF7E2FD401B6428F6D9F0E7894B9A68FA
:1017B80012F00C0F07D09A6802F00C02082A16D112
:1017C8005B68590213D4834B1A68920702D5E26802
:1017D800012AC9D11968F82090FAA0F02269B0FA54
:1017E80080F021F0F80182400A431A602CE0E26898
:1017F8007A4BDAB101221A60FEF7B6FD0546754844
:1018080003689F0705D4FEF7AFFD401B0228F6D9F1
:10181800BDE70268F82191FAA1F12369B1FA81F1D3
:1018280022F0F8028B40134303600DE01A60FEF7C4
:101838009BFD0546674B1B689E0705D5FEF794FD83
:10184800401B0228F6D9A2E72368180703D42368A7
:10185800590744D51FE06269614B72B101221A60D1
:10186800FEF782FD05465B4B5B6F9A07EFD4FEF7E8
:101878007BFD401B0228F6D989E71A60FEF774FD44
:101888000546544B5B6F9B07E1D5FEF76DFD401B8A
:101898000228F6D97BE7002301934E4B1A6C42F0DD
:1018A80080521A641B6C4F4A03F080530193019BCA
:1018B800136843F480731360FEF756FD0546494BE1
:1018C8001B68DF050ED5484B227A1A70A368BBB196
:1018D800FEF74AFD05463F4B1B6F9E0708D5A269D8
:1018E800EAB959E0FEF740FD401B0228E7D94EE768
:1018F800FEF73AFD41F28833401B9842EBD946E7A0
:10190800FEF732FD0546334B1B6F9807E7D5FEF708
:101918002BFD41F28833401B9842F4D937E72D4B11
:101928009B6803F00C03082B3FF41EAF2F4D0023D8
:10193800022A2B603ED1FEF717FD064625480368AC
:1019480099012BD447F6C07797FAA7F74FF440369A
:10195800B7FA87F796FAA6F64FF07061B6FA86F6E8
:1019680091FAA1F1E369226AB1FA81F11A43636A33
:10197800BB401A43A36A5B08013BB3401343E26AC6
:101988008A401343436001232B60FEF7EDFC0446B5
:10199800104B1B689A0107D5002018E0FEF7E4FCFD
:1019A800801B0228CAD9F2E6FEF7DEFC001B0228DB
:1019B800EED9ECE6FEF7D8FC0446064B1B689B0103
:1019C800EAD5FEF7D1FC001B0228F6D9DFE603B002
:1019D800F0BD00BF00380240023802400000474214
:1019E800800E474200700040703802406000474255
:1019F8004E4B1A6802F00F02914270B504460D462C
:101A08000AD82168880710D54948836823F0F0026E
:101A1800A3681343836008E0CAB21A701B6803F016
:101A28000F038B42EDD0012070BDC90706D43F4B90
:101A38001A6802F00F02954256D35CE063683C4A8C
:101A4800012B03D1126812F4003F08E0991E012906
:101A5800126802D812F0007F01E012F0020FE2D003
:101A680033498A6822F0030213438B60FEF77CFC3B
:101A78006368012B06460ED12D4B9B6803F00C03BF
:101A8800042BD4D0FEF770FC41F28833801B9842B7
:101A9800F2D9032070BD022B0DD1254B9B6803F0B2
:101AA8000C03082BC3D0FEF75FFC41F28833801B80
:101AB8009842F2D9EDE7032B10D11D4B9B68FEF736
:101AC80053FC41F28833801B9842F6D9E1E7FEF7D0
:101AD8004BFC41F28833801B9842DAD8144B9B6840
:101AE80013F00C0FF3D1A2E7EAB21A701B6803F0E7
:101AF8000F03AB4297D121684A0706D50C48836883
:101B080023F4E052E368134383600B0741BF084A9C
:101B18002169936823F4604344BF43EAC103936097
:101B28000F20FEF7EDFB002070BD00BF003C024017
:101B38000038024010B51C4CA36803F00C03042BBA
:101B48002ED0082B2ED1626802F03F03626847F658
:101B5800C07112F4800F626891FAA1F147F6C07063
:101B680000EA020008BF114AB1FA81F120FA01F037
:101B78000EBFB2FBF3F20E49B1FBF3F202FB00F326
:101B8800094A50684FF4403292FAA2F200F4403009
:101B9800B2FA82F2D04001304000B3FBF0F010BD41
:101BA800034810BD014810BD003802400024F4006D
:101BB800001BB70008B5FFF7BDFF084BF0229B6874
:101BC80092FAA2F203F0F003B2FA82F2D340044A86
:101BD800D35CD840034B186008BD00BF00380240F2
:101BE800C0AA00080800002003685A6B12F0450FCD
:101BF800FBD05A6B520703D504229A63032070471F
:101C0800586B10F0010015BF012040F2FF52986395
:101C18009A63704770B5436A86B01B0401930D231D
:101C2800054602934023002203930E464FF4806337
:101C38000068009201A90492059301F027FC286826
:101C4800436B13F0450FFBD0436B5B0703D50423AD
:101C5800836303207CE0436B13F0010403D001236A
:101C68008363184674E001F024FC0D2801D010208D
:101C78006EE02B6840F2FF529A63204601F01CFC8C
:101C88000090009B3348C3F343233370009B1840F4
:101C980000285DD0009B002B39DB009B5D0038D409
:101CA800009B9C0037D4009BD90036D4009B1A01B6
:101CB80035D4009B5B0134D4009BDE0133D4009BF8
:101CC8001D0232D4009B5C02D1D4009B99022ED411
:101CD800009BDA022DD4009B1B032CD4009B5E03CF
:101CE8002BD4009B9D032AD4009BDC0329D4009BA2
:101CF800190428D4009B5A0427D4009B9B0426D49B
:101D0800009B13F0080F14BF1A20002020E01C20AD
:101D18001EE009201CE00A201AE00B2018E00C2025
:101D280016E00D2014E00E2012E00F2010E0112024
:101D38000EE012200CE013200AE0142008E0152021
:101D480006E0162004E0172002E0182000E0192021
:101D580006B070BD08E0FFFD70B5054600680E4688
:101D6800436B13F0450FFBD0436B5B0703D504238C
:101D78008363032070BD436B13F0010402D0012379
:101D8800836339E001F095FBB04201D0102070BDAB
:101D98002B6840F2FF529A63204601F08DFB284BD6
:101DA80003404BB3002829DB450029D4840029D4FB
:101DB800C10029D4020129D4430129D4C60129D458
:101DC800050229D44402E1D4810227D4C20227D4CF
:101DD800030327D4460327D4850327D4C40327D471
:101DE800010427D4420427D4830427D410F0080F11
:101DF80014BF1A20002070BD184670BD1C2070BD8D
:101E0800092070BD0A2070BD0B2070BD0C2070BD6C
:101E18000D2070BD0E2070BD0F2070BD112070BD4B
:101E2800122070BD132070BD142070BD152070BD28
:101E3800162070BD172070BD182070BD192070BD08
:101E480008E0FFFD7047704703685A6BD10510B56D
:101E5800044609D54FF480729A63012383640023F2
:101E6800C364FFF7EFFF25E05A6B920703D5022200
:101E78009A63C2641CE05A6B110703D508229A635F
:101E8800042314E05A6B920603D520229A63062392
:101E98000DE05A6BD10603D510229A63052306E09C
:101EA8005A6B920506D54FF400729A630723E364D0
:101EB800FFF7C9FF2268D36B23F4434323F03A03A7
:101EC800D36310BD026A81F85620426AA1F85420F3
:101ED80090F82B20034690090870C2F3830002F0A3
:101EE800030248708A7093F82A20CA7093F8292050
:101EF8000A7193F828204A71DA6A100E0001C88026
:101F0800C888C2F3074280B240EA121002F00F02FA
:101F1800C8800A7293F82D20D0094872C2F3801045
:101F28008872C2F34010C872C2F300100873002010
:101F380048732DE9F0431C6A012C39D802F00302DA
:101F480092020A610A6993F82C4042EA84020A6103
:101F58000C6993F8332044EA92140C61C2F3C2046A
:101F680002F007020C754A7593F8322054098C75F3
:101F7800C2F3820402F003025200CC750A760C7E8A
:101F880093F8312044EAD2140C760C690F7E0D7A4E
:101F9800012606FA05F501340237BE400D65A5FB9A
:101FA8000445A4FB068906FB0599C1E9128923E0CB
:101FB800022C20D1DA6A02F03F0212040A611A6B7D
:101FC8000C69150E44EA05240C610C69C2F3074537
:101FD8002C430C610C690025013445F10005ED0422
:101FE80045EA5435E4048C644FF40074C2F30722C4
:101FF800CD640C6500E02920C2F3801402F03F0292
:1020080052004C768A761A6B8D7EC2F3C0142C432C
:1020180002F07F028C76CA7693F83720D4090C77C1
:10202800C2F341144C77C2F3820402F00302920017
:102038008C77CA7793F83620CC7F44EA9214CC7711
:10204800C2F3401481F8204002F00102002481F814
:10205800214081F8222093F83520D40981F82340C3
:10206800C2F3801481F82440C2F3401481F825405B
:10207800C2F3001481F82640C2F3810402F003027F
:1020880081F8274081F828205A6B0124C2F34602C0
:1020980081F8292081F82A4093F83B2081F82C20E8
:1020A8009A6BC2F307452D02CD85CD8DAEB2C2F332
:1020B800072535431206CD850A63DA6B0D6B160EBC
:1020C80045EA06450D630D6BC2F3074645EA06254A
:1020D8000D630D6BC2F307263543D2B20D6381F849
:1020E800342093F8432081F835201A6CC2F3074551
:1020F8002D068D638D6BC2F3072645EA06458D6371
:102108008D6BD2B245EA02228A638D6B5A6C45EA1E
:1021180012658D6391F83C50C2F3074245EA1215E7
:1021280002F00F02120281F83C50CA875B6CCA8F1A
:1021380095B2C3F307222A43C3F34603CA8781F83B
:10214800403081F84140BDE8F08300002DE9F047B8
:10215800002590B0057704460E468DF8125002F01F
:1021680013F976230F930D950E9510AB13E907001D
:102178008DE807000A950B950C959D4F20680AABD2
:102188000ECB01F057F98DF8135020683D6001F02F
:1021980075F90120FEF7EEF801233B6020680595EC
:1021A8004FF4806305A9099306950795089501F0F2
:1021B8006DF92068436B4FF48032C3F3C013002BD2
:1021C80040F07C81436B013AC3F3C013F7D103237A
:1021D8008DF813309DF8133003F0FF05002B40F005
:1021E800A1804FF4D57305930823069305A94023CE
:1021F800079301F04BF92068436B13F0450F14BFA8
:10220800012200224FF4803342B93BB1426B12F0F5
:10221800450F14BF01220022013BF5E7426B0BB1C9
:10222800570703D504238363032505E0436B590649
:1022380046BF4023836329258DF813509DF813204A
:10224800002322B9012222624FF0804700E01F4696
:10225800372505A90593069501F018F92046294662
:10226800FFF77AFD8DF813009DF8133003F0FF088F
:10227800002B57D10023372505A94FF0400A4FF40A
:1022880080692068059308930695CDF81CA0CDF8C1
:10229800249001F0FBF829462046FFF75DFD8DF8F4
:1022A80013009DF8133003F0FF05002B3AD147F0D7
:1022B800004343F4801305932068CDF81CA029231C
:1022C80005A906930895CDF8249001F0DFF8236856
:1022D8005A6B12F0450FFBD05A6B520745BF0422C8
:1022E800032540F2FF529A6358BF9A638DF8135042
:1022F8009DF8133003F0FF00A3B901F0DDF80028C2
:1023080008F101084FF6FF7302DB9845B2D101E0EE
:10231800984503D11B238DF8133003E0430044BFD5
:10232800022323629DF81330DBB28DF812309DF83A
:10233800123003F0FF05002B40F0BA80206801F04E
:10234800A1F8002800F08080236A042B20D0022303
:102358000693C0230793206805954FF4806305A969
:102368000895099301F092F82046FFF73DFC0028F4
:102378006CD101F0A1F8A063042001F09DF8E0639E
:10238800082001F099F820640C2001F095F86064A9
:10239800236A022B01D9062B32D103230693206826
:1023A800402305A9079301F071F82068436B13F0E7
:1023B800450FFBD0436B5F0703D5042383630325D5
:1023C80045E0436B13F0010702D0012585633EE029
:1023D80001F06FF8032876D1236840F2FF529A6320
:1023E800384601F069F810F4604F03D1000C08E09A
:1023F800A0802542810468D4420464D4030466D4CE
:102408000120236A042B22D060620923000405906E
:10241800069305A9C0232068079301F037F82046E2
:10242800FFF7E2FB054690B901F046F8A0620420E8
:1024380001F042F8E062082001F03EF820630C2029
:1024480001F03AF8606302E0252500E005468DF8C2
:1024580012509DF812305BBB20463146FFF732FD23
:102468008DF812009DF8123003F0FF02ABB9B6F8F0
:102478005430206808921B040593402307250793CE
:1024880005A94FF480630993069500F0FFFF2046E5
:102498002946FFF761FC8DF8120004F1100393E858
:1024A80007008DE80700231D0ECB206800F0C2FF4F
:1024B8009DF81200C0B210B0BDE8F08740F2FF539B
:1024C8008363002384E61025C1E71325BFE70F25A2
:1024D800BDE700BF30B587B0002340220546019311
:1024E8000C24049301A94FF48063006803920593B8
:1024F800029400F0CBFF28462146FFF72DFC07B0D9
:1025080030BD2DE9F0430446006817460022C26238
:10251800226A022A8DB004BF7F0A47EAC3574FF0E8
:10252800400303934FF00003DDF85080049308BF85
:102538004FF4007810264FF480630D4601A90296E7
:102548000593DDF85490CDF8048000F09FFF3146E4
:102558002046FFF701FC0646002840F08F804FF028
:10256800FF33069309FB08F307939023089302238C
:1025780009930A90012306A920680B9300F0A8FF8D
:10258800B9F1010F8CBF122311232068029301A90E
:10259800019700F07BFFB9F1010F204619D91221EC
:1025A800FFF7DAFB00286AD12268516B40F22A3320
:1025B8000B4043BB536B1804F7D52F1F05F11C08BC
:1025C800206800F053FF47F8040F4745F8D120353D
:1025D800EAE71121FFF7C0FB002850D12268516BB0
:1025E80040F22A630B4073B9536B1904F7D52F1FB8
:1025F80005F11C08206800F039FF47F8040F47452B
:10260800F8D12035EAE723685B6BDB0509D5B9F11A
:10261800010F06D9236A022B03D82046FFF75AFF79
:10262800064623685A6B170703D508229A630420C5
:1026380025E05A6B900702D5022098631FE05A6B79
:10264800910603D520229A63062018E05A6B92055A
:1026580002D44FF0FF370AE04FF400729A63072064
:102668000DE047B100F002FF45F8040B013F206878
:10267800436B9B02F5D440F2FF53836330460DB0A1
:10268800BDE8F0832DE9F04705468CB00068DDF819
:102698005080159F144600228DF80320C2622A6AD2
:1026A800022A04BF640A44EAC3544FF04003039368
:1026B8004FF0000308BF4FF400784FF0100904935F
:1026C8000E464FF4806301A9CDF80480CDF8089038
:1026D800059300F0DBFE28464946FFF73DFB00283E
:1026E80040F0C380012F8CBF1923182301A9286843
:1026F8000293019400F0CAFE012F28468CBF1921CD
:102708001821FFF729FB0446002840F0AE804FF05F
:10271800FF3306939023089309900A90012307FB3F
:1027280008F82868CDF81C8006A90B9300F0D0FEA5
:10273800012F40D92B68596B40F21A320A409ABBD4
:10274800596B4904F7D5C4EB08031F2B13D813F0B2
:10275800030F4FEA930318BF01334FEA830906EBCF
:10276800090A564505D03146286800F082FE04362D
:10277800F7E74C440DE0914606EB0901286809F19A
:10278800040900F076FEB9F1200FF5D106F1200A10
:1027980020345646CEE7596B49040ED4596B40F2A3
:1027A8001A620A40002AF6D02B685B6BD80529D438
:1027B80030E04C4456462B68F0E7C4EB08031F2B67
:1027C80011D813F0030F4FEA930318BF01334FEAF0
:1027D800830906EB090A5645EBD03146286800F014
:1027E80048FE0436F7E7914606EB0901286809F127
:1027F800040900F03EFEB9F1200FF5D106F1200AD8
:102808002034D7E7012F05D92B6A022B02D8284696
:10281800FFF760FE2B685A6B140703D508229A63EA
:10282800042022E05A6B900702D5022098631CE02E
:102838005A6BD10603D510229A63052015E05A6B0E
:10284800920504D54FF400729A6307200DE040F218
:10285800FF529A6328460DF10301FFF7DBF920B90F
:102868009DF80330063B012BF4D90CB0BDE8F08786
:1028780030B5436A87B01B040193402303930023B8
:1028880004460D25049301A94FF48063006802955E
:10289800059300F0FBFD20462946FFF75DFA38B99D
:1028A80000F00AFEC0F34320043818BF012000E0FE
:1028B800022007B030BD0000036A23F00103036261
:1028C800036A426870B584690D6824F0730425436F
:1028D80023F002048B6823430C4CA04209D004F572
:1028E8008064A04205D042604A6885614263036201
:1028F80070BDCC688E6923F0080323434C6922F429
:102908004072344323F004032243ECE70000014003
:10291800036A23F480730362036A426830B5C469AA
:102928000D6824F073042C438D6823F4007343EA84
:1029380005230E4DA84209D005F58065A84205D0AB
:1029480042604A68C461C263036230BDCD6823F443
:10295800006343EA05234D6922F4405242EA051216
:102968008D6923F4806342EA0512E9E7000001401B
:10297800036A23F48053036230B5046A4368C2696A
:102988000D6822F4E64242EA05228D6824F40054D8
:1029980044EA0534094DA84209D005F58065A842E6
:1029A80005D043604B68C2610364046230BD4D6961
:1029B80023F4804343EA8513F3E700BF0000014096
:1029C800036848689A6822F0700230B502430C68C0
:1029D80022F00702224350289A6021D002D84028CA
:1029E80010D030BD60282DD070283DD18C68CA68C1
:1029F80098680969224320F47F40024342EA012291
:102A08009A6030BD186A1A6A096922F001021A62CE
:102A18009A6922F0F00242EA01129A61186230BD06
:102A280088680D69196A1C6A24F001041C629A6995
:102A380021F00A0122F0F00242EA051201439A61EC
:102A4800196230BD186A8C680D6920F01000186290
:102A580099691A6A21F4704122F0A00241EA05310D
:102A680042EA041299611A6230BD7047036851B195
:102A7800042914D11A6A22F010021A621A6A42F062
:102A880010021A621FE01A6A22F001021A621A6A18
:102A980042F001021A62DA6842F0020216E01A6A8B
:102AA80022F001021A621A6A42F001021A621A6AD4
:102AB80022F010021A621A6A42F010021A62DA68E8
:102AC80042F00202DA60DA6842F00402DA601A6858
:102AD80042F001021A600020704790F83830012B4C
:102AE80070B54FF0020300F0B08080F83930036809
:102AF800012280F838209A6822F47F4222F0770277
:102B08009A600A68402A77D018D8102A00F08B807B
:102B180008D8002A40F093809A6822F0700242F0A8
:102B280007028BE0202A00F08480302A40F087805A
:102B38009A6822F0700242F037027FE0702A35D09E
:102B48001BD8502A41D0602A79D11C6A4D68CE68BA
:102B580024F010041C6299691A6A21F4704122F069
:102B6800A00242EA051241EA063199611A629A689E
:102B780022F0700242F0670260E0B2F5805F11D087
:102B8800B2F5005F5BD19C684D688A68C9682A43C2
:102B980024F47F44224342EA01229A609A6842F46C
:102BA80080424BE09A6822F0070247E09C684D6833
:102BB8008A68C9682A4324F47F44224342EA0122EE
:102BC8009A609A6842F0770238E04C68CE68196AD1
:102BD8001D6A25F001051D629A6921F00A0122F09B
:102BE800F00242EA061221439A6119629A6822F0B9
:102BF800700242F0570221E04C68CE68196A1D6ADB
:102C080025F001051D629A6921F00A0122F0F002FF
:102C180042EA061221439A6119629A6822F0700208
:102C280042F047020AE09A6822F0700242F0170266
:102C380004E09A6822F0700242F027029A600123A9
:102C480080F83930002380F83830184670BD38B520
:102C580090F83830012B04464FF0020315D00125B7
:102C680080F8385080F83930FFF7AAFE2368DA6810
:102C780022F04002DA60DA68002022F48042DA604A
:102C880084F8395084F8380038BD184638BD704784
:102C9800704710B5846B226A0123904284F839305A
:102CA8000DD0636A984201D1022308E0A36A9842D2
:102CB80001D1042303E0E36A984201D10823237673
:102CC800204603F0DDF80023237610BD70477047D7
:102CD80003681A69910710B5044614D5DA68920793
:102CE80011D56FF002021A619B6901229B070276D7
:102CF80002D003F0C5F804E0FFF7CAFF2046FFF74B
:102D0800E5FF0023237623681A69500716D5DA6889
:102D1800510713D56FF004021A619B69022213F45C
:102D2800407F2276204602D003F0AAF804E0FFF79D
:102D3800AFFF2046FFF7CAFF0023237623681A69EE
:102D4800120715D5DA68100712D56FF008021A6154
:102D5800DB69042299072276204602D003F090F816
:102D680004E0FFF795FF2046FFF7B0FF0023237626
:102D780023681A69D20616D5DA68D00613D56FF01B
:102D880010021A61DB69082213F4407F227620467C
:102D980002D003F075F804E0FFF77AFF2046FFF74A
:102DA80095FF0023237623681A69D10708D5DA68C6
:102DB800D20705D56FF001021A612046FFF767FFB9
:102DC80023681A69100608D5DA68110605D56FF068
:102DD80080021A61204600F02CFB23681A6952060B
:102DE80008D5DA68500605D56FF040021A6120460A
:102DF800FFF76DFF23681A6991060AD5DA6892060B
:102E080007D56FF0200220461A61BDE8104000F097
:102E18000FBB10BD704708B5806B012380F83930AF
:102E2800FFF7F8FF08BD00002E4A0368904212D051
:102E3800B0F1804F0FD0A2F57C4290420BD002F542
:102E48008062904207D002F58062904203D002F57A
:102E58007842904218D14A6823F070031343214AFC
:102E6800904237D0B0F1804F34D01F4A904231D0D1
:102E780002F5806290422DD002F58062904229D0FE
:102E880002F57842904225D0184A904222D002F5A5
:102E9800806290421ED002F5806290421AD0A2F55C
:102EA8009832904216D002F58062904212D002F514
:102EB800806290420ED003608B68C3620B688362A5
:102EC800084B98420BD003F58063984207D0012342
:102ED80043617047CA6823F440731343EBE70B69F7
:102EE8000363F4E700000140000400400040014093
:102EF80010B50446A0B190F8393003F0FF021BB9B1
:102F080080F8382001F05EFB022384F8393020680D
:102F1800211DFFF789FF012384F83930002010BDF7
:102F2800012010BD10B50446A0B190F8393003F067
:102F3800FF021BB980F8382001F0C0FB022384F897
:102F480039302068211DFFF76FFF012384F83930DD
:102F5800002010BD012010BD10B50446A0B190F8A6
:102F6800393003F0FF021BB980F83820FFF77DFDE8
:102F7800022384F839302068211DFFF755FF01230B
:102F880084F83930002010BD012010BDF8B50C467A
:102F98000546002841D090F8393003F0FF021BB9EC
:102FA80080F8382001F05CFB2946022351F8040B15
:102FB80085F83930836823F007038360FFF734FF0F
:102FC800296822688E688B692769086A164323F482
:102FD8004073A26923F0030343EA0222A368134360
:102FE800E2693F0147EA0227E2683A43276A23F485
:102FF8007C4342EA073223F0FC03134320F0AA0281
:10300800606942EA001260688E6002438B610123A6
:103018000A62002085F83930F8BD0120F8BD0000AB
:1030280070B5046A1A4E24F0010404628469056AC2
:10303800B04224F003041AD0B0F1804F17D0A6F59F
:103048007C46B04213D006F58066B0420FD006F534
:103058008066B0420BD006F57846B04207D006F538
:103068007056B04203D0A6F59436B0420DD1224333
:103078001B0122F0F002DBB225F00A0501F00A017B
:103088001A430D438261056270BD44F00102EFE707
:1030980000000140F8B590F83830012B04460D4681
:1030A8004FF002007FD0012384F8383084F83900CB
:1030B80072B906C9EB682068FFF7B2FF23689A69FE
:1030C80022F00C029A619969AA680A439A6164E03D
:1030D800042A8E68236891E80140C9681FD11A6ADA
:1030E80022F010021A629D691F6A25F4407545EAAC
:1030F8000E220903000122F4704289B227F0A005CC
:1031080000F0A0000A4328439A6118629A6922F4E1
:1031180040629A619A6942EA06269E613DE0082A61
:103128001A6A1CD122F480721A62DD691F6A25F0BE
:10313800030545EA0E020901000222F0F002C9B2B5
:1031480027F4206500F420600A432843DA611862F6
:10315800DA6922F00C02DA61DA6916431CE022F41B
:1031680080521A62DD691F6A25F4407545EA0E220D
:10317800090322F4704289B20003114300F420408D
:1031880027F420421043D9611862DA6922F44062B8
:10319800DA61DA6942EA0626DE610123002084F852
:1031A800393084F83800F8BD036A23F0100303624D
:1031B800036A426830B584690D6824F4E64444EA39
:1031C80005248D6823F0200343EA05130E4DA84219
:1031D80009D005F58065A84205D042604A68846137
:1031E8008263036230BDCD6823F0800343EA051390
:1031F8004D6922F4406242EA85028D6923F040035A
:1032080042EA8502E9E700BF0000014038B590F8BE
:103218003830012B04460D464FF0020058D00123E8
:1032280084F8383084F839000C2A4BD8DFE802F0EB
:10323800074A4A4A174A4A4A294A4A4A39002068E4
:10324800FFF73AFB23689A6942F008029A619A6983
:1032580022F004029A6199692A690A430FE02068FA
:10326800FFF7A2FF236829699A6942F400629A610C
:103278009A6922F480629A619A6942EA01229A6103
:1032880020E02068FFF744FB2368DA6942F008026F
:10329800DA61DA6922F00402DA61D9692A690A4333
:1032A8000FE02068FFF764FB23682969DA6942F4B4
:1032B8000062DA61DA6922F48062DA61DA6942EA84
:1032C8000122DA610123002084F8393084F83800BB
:1032D80038BD10B50123046A8B4024EA0303036256
:1032E800036A8A401343036210BD000010B5044608
:1032F80001220068FFF7EDFF2368084A934203D0D4
:1033080002F58062934203D15A6C42F400425A6437
:103318001A6842F001021A60002010BD0000014046
:1033280038B5044690F83900C0B202280D4658D086
:1033380094F83900C0B2012805D10AB9002B50D140
:10334800022184F839100C2D40D8DFE805F0073F3A
:103358003F3F153F3F3F233F3F3F3100206A214910
:10336800C1632149816421683431FDF707FC226873
:10337800D36843F4007328E0606A1A49C1631A49A4
:10338800816421683831FDF7F9FB2268D36843F47A
:1033980080631AE0A06A1349C163134981642168F4
:1033A8003C31FDF7EBFB2268D36843F400630CE083
:1033B800E06A0C49C1630C49816421684031FDF71A
:1033C800DDFB2268D36843F48053D3602068012270
:1033D8002946FFF77EFF2268136843F00103136054
:1033E800002038BD9B2C00081F2E000890F83830AC
:1033F800012B10B54FF0020318D080F8393003685C
:103408005A6822F070025A605C680A6822435A605F
:103418009A6822F080029A609C684A6822439A60FF
:10342800012380F83930002380F83830184610BD61
:103438007047704784B010B503AC84E80E000B46A3
:10344800049942681943059B1943069B1943079B36
:103458001943089BBDE81040194322F4FD4323F0AB
:103468007F030B43436004B000207047D0F880000E
:1034780070470B68C0F88030002070470323036052
:1034880000207047006800F0030070470B6810B513
:1034980083608C684B68C2681C43CB680969234306
:1034A800194322F47F6323F00F030B43C36000200A
:1034B80010BD0069C0B2704782B000230193034B6E
:1034C80003440193019B186802B07047142C014013
:1034D80010B58A68CC680B68436214434B680A6964
:1034E8008362C36A14434A6923F0F70322431343F0
:1034F800C362002010BD00000A4B013B01D103202C
:1035080070470269002AF8DA0369064A43F00103A2
:103518000361013AF3D0036913F00103F9D11846A6
:10352800704700BF410D030084B038B505AD85E88C
:103538000E000A9B012B044617D1836B23F48033BA
:103548008363C36823F4840323F04003C360C36820
:1035580023F44013C360119B012B02BFC36843F4DB
:103568008013C360FFF7C8FF08E0C36843F0400357
:10357800C360FFF7C1FF4FF48033A363089B012B9F
:1035880001BFA36843F00C03A360A36804BF43F022
:103598002003A360BDE83840002004B0704783686A
:1035A80043F00103836000207047836823F0010320
:1035B80083600020704708B5C368012923F0C04321
:1035C800C36004D1C36843F00053C36004E019B971
:1035D800C36843F08043C3603220FCF7CBFE002071
:1035E80008BD0000890141F02001064A0161013A45
:1035F80005D0036913F02003F9D11846704703205A
:10360800704700BF410D03001023064A0361013AC9
:1036180005D0036913F01003F9D118467047032049
:10362800704700BF410D0300D0F800381943C0F8B7
:10363800001800207047000084B02DE9F0410446CE
:1036480007A880E80E00A36B119E0A9F43F400238D
:103658008846A3631EB9A36B43F40013A363002336
:10366800C4F8003ED4F80038C4F800380C9B012B8D
:1036780004F5006506D10999204629B11946FFF7D6
:10368800D3FF03E020460321FFF7CEFF1021204699
:10369800FFF7A8FF2046FFF7B7FF00234FF0FF32E0
:1036A8002B616B61AA61EB6104F5106243450FD091
:1036B80011680029B8BF4FF090404FF00001ACBF2F
:1036C800116010601161FF21916001332032EDE734
:1036D80004F53063002242450FD019680029B8BFAD
:1036E8004FF090404FF00001ACBF196018601961AD
:1036F800FF21996001322033EDE72B69012F23F474
:1037080080732B6108D1154B2B632B6B43F48033EB
:1037180043F003032B632B6B0023A3616FF08043FB
:1037280063611FB9A36943F01003A361A2690C4B3D
:103738001343A3610D9B1BB1A36943F00803A36165
:10374800012E01BFA36943F0804343F00403A36142
:10375800BDE8F041002004B0704700BF00018000C0
:1037680000383C80D0F8083800F5006213F00600F5
:1037780012D0936803F00603022B0CD0936803F071
:103788000603062B07D0936803F00603042B14BF27
:103798000020022070470320704770B54B780D78E1
:1037A800D0F81C4800F50062012B1BD1AB409BB23E
:1037B8002343D3610E784FF4106404EB4614235866
:1037C8001A0429D422588B6842F0805545F40045E4
:1037D800C3F30A02CB782A4342EA834343EA865377
:1037E800235019E04FF48033AB402343D3610A7868
:1037F8004FF4306303EB421213581B040CD41358D4
:1038080043F080548B68C97844F40044C3F30A0336
:10381800234343EA81431350002070BD4A78012AAC
:1038280070B500F500630E7817D1DD6B02FA06F467
:10383800A4B225EA0404DC630D78DC69AA4092B2DC
:1038480024EA0202DA610A784FF4106303EB4213A8
:103858001A5822F400421A5015E0DC6B012202FAD1
:1038680006F524EA0544DC630D78DC69AA4024EAFD
:103878000242DA610A784FF4306303EB42131A58B4
:1038880022F400421A50002070BD4B78012BF0B58D
:103898000B784D694FF0200460D14FF4106614FB8B
:1038A80003630344B5B91D6925F0FF5525F4C01518
:1038B8001D610B7814FB036303441D6945F400255F
:1038C8001D610B7814FB036404442369DB0CDB04DF
:1038D800236126E01F69FF0CFF041F610B7814FBAE
:1038E80003640444236923F0FF5323F4C0132361C2
:1038F8008B689D420D7888BF4B6120244FF410637C
:1039080014FB053505442E6946F400262E610D7812
:1039180014FB053303444C691D69C4F312042C439A
:103928001C61012A0B7805D100EB43130A69C3F81F
:10393800142909E04A693AB1D0F83428012404FA74
:1039480003F31343C0F834380A784FF4106303EBD9
:103958004213C25842F00442C2503CE04FF4306770
:1039680014FB037303441E69F60CF6041E610B78FE
:1039780014FB037303441E6926F0FF5626F4C01691
:103988001E618E6805B14E610B784FF4306514FBEB
:1039980003530344C6F312061F6947F400271F6147
:1039A8000B7814FB03540444012A236946EA0306EE
:1039B800266101BF0B78202212FB03531B1804BF9A
:1039C800CA685A610A784FF4306303EB4213C2584D
:1039D80042F00442C2500020F0BD10B59DF80840E6
:1039E8006CB9033300EB023023F0030300F5805079
:1039F8000B44994203D051F8042B0260F9E70020E8
:103A080010BD00002DE9F3414B780C78012B4B6970
:103A180040F09C8020254FF4106615FB0464044494
:103A28002769ABB927F0FF5727F4C01727610C782F
:103A380015FB04640444276947F4002727610C78C0
:103A480015FB046505442C69E40CE4042C613FE093
:103A5800FF0CFF0427610C78D1F808C015FB04643B
:103A68000444276927F0FF5727F4C01727610F7808
:103A780015FB0767074403EB0C04013CB4FBFCF49B
:103A8800DFF8B4C1D7F810E0E40404EA0C0C4CEAFF
:103A98000E043C610C7815FB04640444C3F3120E55
:103AA80027694EEA07072761CC78012C40F0BB80D4
:103AB8000C7815FB04640444276927F0C047276184
:103AC8000C7815FB046505442C6944F000542C61FE
:103AD800012A06D10C780D6900EB4414C4F8145976
:103AE8000BE0CC78012C08D03BB10F78D0F83458D3
:103AF8000124BC402C43C0F83448CC78012C11D1A7
:103B0800D0F8084814F4807F0C784FF020054FF463
:103B1800106615FB046425580CBF45F0005545F0A8
:103B2800805525500D784FF4106404EB4514055961
:103B380045F004450551CC78012C78D10C780092D9
:103B4800C96822469BB2FFF748FF70E020264FF471
:103B5800306716FB04740444D1F808E02569ED0CBD
:103B6800ED0425610C7816FB04740444256925F0DE
:103B7800FF5525F4C01525610D7816FB05757BB931
:103B88000544CEF3120E2B694EEA03032B610C7821
:103B980016FB04740619336943F4002333611BE0F0
:103BA80044197344013BDFF890C0B3FBFEF39BB2AA
:103BB80025694FEAC34808EA0C0C4CEA050525615B
:103BC8000C7816FB047404440EFB03FE2569CEF33F
:103BD800120E4EEA05032361012A01BF0B78CA6859
:103BE80000EB4313C3F8142BCB78012B11D1D0F879
:103BF800083813F4807F0B784FF020024FF43064BC
:103C080012FB0343C2580CBF42F0005242F08052EC
:103C1800C2500A784FF4306303EB4213C25842F0A3
:103C28000442C25003E0012A7FF45EAF52E700204D
:103C380002B0BDE8F08100BF0000F81F033222F097
:103C480003020A44914205D000F580531B6841F8ED
:103C5800043BF7E7084670474B78012B10B54FF047
:103C680020020C7814D14FF4106312FB0433C258AD
:103C7800002AA2BFC25822F08042C2500A784FF4EC
:103C8800106303EB4213C25842F40012C25013E00F
:103C98004FF4306312FB0433C258002AA2BFC25843
:103CA80022F08042C2500A784FF4306303EB42138B
:103CB800C25842F40012C250002010BD4B78012BAC
:103CC8000B7830B54FF020020CBF4FF410654FF45D
:103CD800306512FB03531C5824F400141C50CB7895
:103CE800023B012B9FBF0B7812FB0352135843F082
:103CF800805398BF1350002030BDD0F8003823F40B
:103D0800FE63C0F80038D0F80038090101F4FE61FC
:103D18000B43C0F800380020704708B5D0F80438C5
:103D280023F00203C0F804380320FCF723FB00202B
:103D380008BD08B5D0F8043843F00203C0F80438C9
:103D48000320FCF717FB002008BD43698069184071
:103D58007047D0F8183800F50060C0691840000CAA
:103D6800704700F50063D0F81808DB69184080B286
:103D7800704700EB411100F50060D1F8083B40693D
:103D88001840704710B5D0F81048D0F8343800EB18
:103D98004110CB40DB01D0F80809DBB223431840BF
:103DA80010BD406900F001007047D0F8003923F4D5
:103DB800FF6323F00703C0F8003900F500639A6831
:103DC80002F00602042A02BFD0F8002942F00302DA
:103DD800C0F800295A6842F480725A60002070477F
:103DE80010B50024C0F8104BD0F8104B44F4002450
:103DF800C0F8104BD0F8104B44F01804C0F8104B22
:103E0800D0F8104B012900F5306344F0C04408BFD6
:103E18004FF08023C0F8104B04BFC0F8142BC0F833
:103E2800003B002010BD08B500F060F808B501207F
:103E3800FFF7F9FF08B50C4B1A680AB90B4A1A6064
:103E48001A680B49C31C23F0030313448B4206D999
:103E580005F0E2FC0C2303604FF0FF3008BD024977
:103E680010460B6008BD00BFE003002010160020BC
:103E780000FC012001230360014B0B60704700BF69
:103E88000000002008B505F0C7FC582303604FF078
:103E9800FF3008BD08B505F0BFFC582303604FF09C
:103EA800FF3008BD08B505F0B7FC582303600020B3
:103EB80008BD08B505F0B0FC582303604FF0FF308B
:103EC80008BD08B505F0A8FC582303604FF0FF3083
:103ED80008BD000008B500F01BF8024B024A9A60C2
:103EE80008BD00BF00ED00E000000008BFF34F8FE1
:103EF8000549064BCA6802F4E0621343CB60BFF37E
:103F08004F8F00BFFDE700BF00ED00E00400FA0599
:103F18000C4B1A68002142F001021A6099601A6875
:103F280022F0847222F480321A60074A5A601A68B2
:103F380022F480221A60D960044B4FF000629A6024
:103F4800704700BF003802401030002400ED00E048
:103F5800174A1849936803F00C03042B03D0082B65
:103F680003D0154B18E0154B16E05068536810F451
:103F7800800F03F03F03506814BF104A0E4AB2FB8B
:103F8800F3F30B4A5268C2F30142C0F388100132BE
:103F980043435200B3FBF2F30B60054B084A9B689E
:103FA800C3F30313D25C0B68D3400B60704700BFA8
:103FB80000380240080000200024F400001BB7006D
:103FC800D0AA0008F0B5124C124A85B00025012687
:103FD8004FF440330227204684E82C002661A6616E
:103FE8002562E562E560E76126636561FCF7D0F963
:103FF80007236946204602938DE86000FCF7C6FB5C
:10400800204669468DE8C000FCF7C0FB05B0F0BD4E
:10401800100B00200020014070B502681F4B9A4227
:1040280086B0064637D1002503F58C3300955A6CC7
:104038001B481C4C42F480725A645B6C039503F471
:104048008073009301A9009B032301930293FCF75B
:1040580073FE154BA56084E828004FF48063236144
:104068004FF4805363614FF48043A3614FF480732E
:10407800E36120464FF400332362E5606562FCF794
:1040880043FDB463122005212A46A663FCF722FCEF
:104098001220FCF74FFC06B070BD00BF00200140A5
:1040A80000000240580B00201064024007B501468A
:1040B80004980090059801900448FEF722FA003011
:1040C80018BF012003B05DF804FB00BF800C00207E
:1040D80007B5014604980090059801900448FEF73A
:1040E800D1FA003018BF012003B05DF804FB00BF0F
:1040F800800C00200148FEF7BBBB00BF800C0020ED
:1041080001460148FDF7DEBE800C002007B50123FB
:1041180007488DF807304FF40071FCF7F7FE08B92F
:104128008DF807009DF8070003B05DF804FB00BF99
:104138000008024008B5FFF7E9FF012805D1044847
:104148000449BDE80840FEF701B8012008BD00BFDA
:10415800800C0020280C002013B5074C074B236067
:104168002046FCF71AFC002220466946009201927C
:10417800FCF781FC02B010BDB00B002000740040B9
:1041880010B50268114B9A4286B01DD1002403F580
:10419800E23300941A6C0E4842F000521A641B6C09
:1041A800039403F000530093009B1023019301A98B
:1041B80003230293FCF7C0FD362007212246FCF7B3
:1041C80089FB3620FCF7B6FB06B010BD0074004032
:1041D8000000024013B5184B002400941A6B42F4F7
:1041E80080021A631A6B02F480020092009A01940A
:1041F8001A6B42F400121A631B6B03F40013224675
:10420800019304211020019BFCF764FB1020FCF7AC
:1042180091FB224602213820FCF75CFB3820FCF792
:1042280089FB032122463B20FCF754FB3B20FCF78B
:1042380081FB02B010BD00BF0038024008B503483A
:10424800034902F0D1FF034B187008BDA8B200085B
:10425800C50B0020C40B00202DE9F0418AB03E4B6D
:10426800DFF800813D4E002400941A6B42F0800272
:104278001A631A6B02F080020092009A01941A6B7A
:1042880042F004021A631A6B02F004020192019AC6
:1042980002941A6B42F001021A631A6B02F00102CF
:1042A8000292029A03941A6B42F002021A631A6B82
:1042B80002F002020392039A04941A6B42F0080275
:1042C8001A631B6B03F00803049340462246CF2170
:1042D800049BFCF721FE2246304648F24001FCF7D9
:1042E8001BFE01250327CF23404605A90593069504
:1042F80007950897FCF720FD082305A9184805939A
:1043080006940795FCF718FD4FF40043304605A9BD
:104318000593069507950897FCF70EFD4FF4007373
:1043280005934046022305A907930694FCF704FD6C
:104338002023304605A9059306940794FCF7FCFC56
:104348004023304605A90593069507940897FCF77E
:10435800F3FC0AB0BDE8F0810038024000040240D6
:104368000000024000080240054B064A1A6000227D
:104378005A609A60DA601A615A619A61704700BFA0
:10438800800C0020002C01402DE9F04302682F4BDF
:104398009A4287B0064655D1002503F58633009525
:1043A8005A6C2B4842F400625A645B6C039503F420
:1043B8000063009303270C244FF00408009B059426
:1043C8004FF488534FF0020901A90193CDF80890E2
:1043D8000497FCF7B1FC0DEB08011E480594CDF8D5
:1043E80004801D4CCDF8089003950497FCF7A4FCB5
:1043F8001A4AA5604FF0006384E80C004FF480630C
:1044080023614FF4805363614FF48043A3612023F9
:10441800E3614FF40003E36220464FF40013236383
:10442800E5602562C4F82480A762FCF76DFB3120A3
:10443800B465F46506212A46A663FCF74BFA3120D9
:10444800FCF778FA07B0BDE8F08300BF002C014004
:1044580000080240000C0240D00B002058640240C3
:104468007047FEE7FEE7FEE7FEE7FEE708B5FBF765
:1044780073FFBDE80840FCF78CBA00000148FCF760
:10448800ABBB00BFE00C00200148FCF7E0B800BF60
:10449800100B00200148FEF71BBC00BFB00D002028
:1044A8000148FEF715BC00BF740D00200148FDF758
:1044B800CBBC00BF800C00200148FCF7B0BA00BF9D
:1044C800B00B00200148FCF787BB00BF580B002049
:1044D8000148FCF781BB00BFD00B00200148FCF766
:1044E800A3BD00BF58100020F0B5204C00254FF0A8
:1044F8008040542391B084E829004FF0FF332046D0
:10450800E3602561FEF7F4FC10A94FF4805341F8ED
:10451800343D2046FEF7E1FA2046FEF71DFD04264D
:1045280050230F270BA920460C930B960D950E953B
:104538000F97FEF78CFB012307A92A46204608930C
:10454800079509950A97FEF7A5FD022307A93246A4
:10455800204607930893FEF79DFD20460DEB0601C4
:1045680001950295FEF742FF11B0F0BDB00D002095
:1045780030B5124B124C00258DB084E828004FF658
:10458800FF73E360012103230220082203930591AE
:104598000F2308900991204603A9069207930A92CF
:1045A8000B93A56025610495FEF7F0FC204601A950
:1045B80001950295FEF71AFF0DB030BD00040040CA
:1045C800740D002070B50368B3F1804F86B00646BD
:1045D8003DD1002503F50E3300951A6C1D481E4C7D
:1045E80042F001021A641B6C039503F00103009367
:1045F800009B049520230193022301A90293012320
:104608000593FCF799FB154AA5604FF0C06384E851
:104618000C004FF4806323614FF4805363614FF4BF
:104628008043A3614FF48073E36120464FF4403325
:104638002362E5606562FCF767FA34621C20032197
:104648002A46A663FCF746F91C20FCF773F906B066
:1046580070BD00BF00000240E00C002088600240EE
:1046680010B50268134B9A4286B020D103F50D337A
:1046780000240094196C104841F0020119641B6C65
:1046880003F002030093009BC0230122019301A9B8
:1046980002230293039204930593FCF74DFB1D201C
:1046A8000C212246FCF716F91D20FCF743F906B049
:1046B80010BD00BF00040040000002400368114A1A
:1046C800934282B00CD1002300930F4B1A6C42F036
:1046D80004021A641B6C03F004030093009B0EE0B1
:1046E8000A4A93420BD100230193074B1A6C42F0FC
:1046F80040021A641B6C03F040030193019B02B053
:10470800704700BF00080040003802400018004011
:104718007FB503680F4A934207D180230022019393
:1047280002230293039204920CE00B4A93420ED1A7
:104738004FF480430193022302930023039303233E
:10474800049309230548059301A9FCF7F5FA07B076
:104758005DF804FB00080040001800400004024017
:1047680030B51148114C002553238BB084E829003B
:1047780040F6C4132046E3602561FEF7D3FB01A988
:10478800204601950295FEF731FE602303A9042215
:1047980020460393049505950795FEF737FD2046B7
:1047A800FFF7B6FF0BB030BD00080040380D002001
:1047B80030B51048104C0025532389B084E82900EF
:1047C80040F6C4132046E3602561FEF7ABFB602387
:1047D80001934FF4FA63029304230DEB03012A4675
:1047E800204605930395FEF711FD2046FFF790FF3D
:1047F80009B030BD00180040EC0D002010B5094C80
:1048080009490022204602F0F3FC2046074902F03D
:1048180011FD2046064903F027F92046BDE810405F
:1048280002F01EBD280E00201C000020A40200205B
:104838000C000020002070470020704710B5054C80
:104848000146206803F01FF9206803F022F90020D0
:1048580010BD00BF4C10002010B5064C0648074993
:104868002060002203F007F92068054903F00BF9DE
:10487800002010BD4C100020280E002054100020ED
:104888005010002010B50368B3F1A04F86B025D1B1
:104898004FF4C0530193022302930323002404938B
:1048A8000F4803940A2301A90593FCF745FA0D4B19
:1048B8005A6B42F080025A6300945A6C42F4804268
:1048C8005A645B6C03F4804300934320042122461E
:1048D800009BFBF7FFFF4320FCF72CF806B010BD48
:1048E8000000024000380240014601F56171D0F82D
:1048F800B40302F0CCBC1C2303FB0103D0F8B403BF
:10490800D3F8E82102F0F0BC1C2303FB0103D0F824
:10491800B4035A6C02F018BDD0F8B40302F093BD8A
:1049280010B5C16804460031D0F8B40318BF01219E
:1049380002F077FDD4F8B403BDE8104002F052BD90
:1049480010B50446D0F8B40302F06EFD2268D2F820
:10495800003E43F00103C2F8003E236A23B1034A34
:10496800136943F00603136110BD00BF00ED00E0BA
:10497800D0F8B40302F061BDD0F8B40302F071BD01
:10498800D0F8B40302F06BBDD0F8B40302F06BBDED
:10499800D0F8B40302F069BD70B505782DBB144C8E
:1049A8004FF0A042072384E80C00C4F8B4030223A4
:1049B800C0F8204201262046E360A36125616561B5
:1049C800E56125626562E6622563FCF7A9FA802144
:1049D8002046FCF7A7FE294640222046FCF781FE28
:1049E800204631468022FCF77CFE002070BD00BFC7
:1049F8005810002008B5D0F82002FCF700FB002072
:104A080008BD10B51446D0F820021A462346FCF714
:104A18005DFD002010BD08B5D0F82002FCF783FD2D
:104A2800002008BD08B5D0F82002FCF707FE0020DA
:104A380008BD08B5D0F82002FCF72DFE002008BDFF
:104A480011F0800FD0F8202218BF01F07F034FF03B
:104A58001C0015BF00FB032100FB012191F83A005F
:104A680091F8DE01704708B5D0F82002FCF71CFD6C
:104A7800002008BD08B5D0F82002FCF7B2FD0020E0
:104A880008BD08B5D0F82002FCF771FD002008BD6C
:104A980008B5D0F82002FCF79CFD08BD12230B8056
:104AA800004870473C00002004230B8000487047F2
:104AB8003800002010B5044C04480A46214602F08C
:104AC8008CFE204610BD00BF10140020E0AA00088C
:104AD80010B5044C04480A46214602F07EFE2046E2
:104AE80010BD00BF10140020F3AA000810B5044C34
:104AF80004480A46214602F070FE204610BD00BF59
:104B08001014002009AB000810B5044C04480A46EC
:104B1800214602F062FE204610BD00BF101400209E
:104B280016AB000810B5044C04480A46214602F0AA
:104B380054FE204610BD00BF1014002021AB000811
:104B4800704710B5044602F0B7FF204610BD0000BC
:104B580070B586B00024134B00941A6B124D42F0C6
:104B680010021A631B6B039403F010030093009B5D
:104B78000123402602932846032301A904930196A2
:104B8800FCF7DAF8284631462246FCF7C5F9202317
:104B9800284601A9019302940394FCF7CDF806B0C6
:104BA80070BD00BF0038024000040240F8B50E4650
:104BB80017461C4643B11E482021FCF7A7F90128D7
:104BC800F9D00024254626E019482021FCF79EF953
:104BD8000128F6D12046F8BD402101221448FCF7EF
:104BE8009BF90220FBF7C6FB114840210022FCF785
:104BF80093F9E3B2172B0AD80D482021FCF786F960
:104C0800012806BFC4F11F03984000200543022075
:104C1800FBF7B0FB0134BC42DED1284604F0CEF8E5
:104C28004FF06E5104F01EF930600120F8BD00BF4E
:104C38000004024030B595B00024224B01941A6C50
:104C480042F080521A641B6C03F080530193019B5D
:104C58001D4B02941A6842F480421A601B6803F4E0
:104C680080430293029B0123089309934FF4800326
:104C78000F930C2310934FF4A8730225119308A8DF
:104C88000723139312950E95FCF750FD0F230393FA
:104C98004FF4A0530521069303A84FF480530793BC
:104CA80004950594FCF7A4FEFCF784FF4FF47A738F
:104CB800B0FBF3F0FBF74AFE0420FBF75DFE15B0EE
:104CC80030BD00BF003802400070004008B5FBF757
:104CD80029FBFFF7AFFFBDE80840FFF739B908B572
:104CE80004F09AFD582303604FF0FF3008BD000020
:104CF800094B0022002159601960996019619A8155
:104D08009A829A75DA751A76044B0549596040F209
:104D1800FF3119811A607047E8030020040400205D
:104D280000C0FA43002282808260828101220160F1
:104D38008273704770B5094D0C4628460021FBF771
:104D48003FFE0021C4EB0434284664230A4694FB42
:104D5800F3F3BDE87040FBF7ADBE00BFB00B002019
:104D680010B5044600F0B4F900F098F9012000F0FD
:104D78009EF920461921BDE81040FFF7DBBF00006F
:104D88002DE9F0410646C0B0684600214FF4807214
:104D980004F09DFDB37B5BB300F080F9B589002476
:104DA8002BB2376803EB430807EBC802127D032ACE
:104DB8001ED0B6F904209A4202D168460E4904E092
:104DC80023B2032B11DC0D49684604F0D0FE57F8D6
:104DD80038101222684604F0DAFEE1B200206A4672
:104DE800671C00F0FDF9BFB23C460135ADB2D7E70C
:104DF80040B0BDE8F08100BF6AAB0008A6B5000866
:104E0800836870B504460D4616463BB10846114600
:104E18009847002855D00023A36070BDFFF7B0FF66
:104E2800002E284A15DDA38820681DB2182105FB2D
:104E380001110144097D032941D00133A1899BB2A5
:104E4800A38008B21BB21B1A032B36DD0131A181E6
:104E580033E00DD0A388002B31D0013BA1899BB250
:104E6800A38008B21BB21B1A002B26DA0139EEE721
:104E78000DB1012324E013781BB3B4F90430206882
:104E880003EB430300EBC303197D01290BD002D3C5
:104E980002290CD013E09B6823600123A580A5603C
:104EA800A373A5810BE01B69A360A17307E0C36826
:104EB80003B123600023A380A3600123A37300230D
:104EC800137070BD1004002030B5094D89B000245E
:104ED8006023029001A92246284601930394059471
:104EE800FEF794F928462146FEF700FA09B030BDCE
:104EF800EC0D002008B5FFF75BFC4FF4FA60FFF7F4
:104F0800E3FF0448FBF736FA4FF47A70BDE808402F
:104F1800FFF7DABF40420F0000EB8000400000F5C9
:104F28007A7080B2FFF7D0BF034B03EB0013002267
:104F380058681989FBF7F0BFE8010020034B03EB21
:104F48000013012258681989FBF7E6BFE801002021
:104F580010B50024074B03EB0413E0B2DB6813B968
:104F6800FFF7E2FF01E0FFF7E9FF0134062CF1D17A
:104F780010BD00BFE801002010B501206424FFF730
:104F8800DDFF2046FBF7F6F90120FFF7CDFF2046AD
:104F9800FBF7F0F910BD10B50220FFF7CFFF032093
:104FA800FFF7CCFF04204FF4FA64FFF7BDFF05209C
:104FB800FFF7BAFFFFF7E0FF2046FBF7DBF9FFF743
:104FC800DBFF2046FBF7D6F9FFF7D6FF2046FBF7B5
:104FD800D1F90220FFF7A8FF0320FFF7AFFF042055
:104FE800FFF7A2FF0520FFF79FFFFFF7C5FF204649
:104FF800FBF7C0F910BD10B504460020FFF794FF79
:1050080022064FF0050002D5FFF798FF01E0FFF7F1
:105018008BFF63064FF0040002D5FFF78FFF01E016
:10502800FFF782FFA1064FF0030002D5FFF786FFC6
:1050380001E0FFF779FFE2064FF0020002D5FFF723
:105048007DFF01E0FFF770FFFFF796FF23074FF0A2
:10505800050002D5FFF772FF01E0FFF765FF610762
:105068004FF0040002D5FFF769FF01E0FFF75CFF8E
:10507800A2074FF0030002D5FFF760FF01E0FFF73A
:1050880053FFE3074FF0020002D5FFF757FF01E097
:10509800FFF74AFFBDE81040FFF76EBF08B50120D3
:1050A800FFF7A9FF4FF4FA60FBF764F908BD03287E
:1050B8000CD8DFE800F002040608082004E00C2001
:1050C80002E00E2000E00F20FFF795BF70470000B8
:1050D80008B5FFF73DFF0B48FBF74CF9FFF75BFFFF
:1050E8002820FFF788FF0620FFF785FF0C20FFF731
:1050F80082FF0120FFF77FFF4FF4FA60FBF73AF9D0
:1051080008BD00BFA086010010B504460020FFF7C7
:1051180015FF22064FF0050002D5FFF70FFF01E04B
:10512800FFF702FF63064FF0040002D5FFF706FF02
:1051380001E0FFF7F9FEA1064FF0030002D5FFF7E3
:10514800FDFE01E0FFF7F0FEE2064FF0020002D597
:10515800FFF7F4FE01E0FFF7E7FEFFF70DFF230777
:105168004FF0050002D5FFF7E9FE01E0FFF7DCFE8E
:1051780061074FF0040002D5FFF7E0FE01E0FFF7FA
:10518800D3FEA2074FF0030002D5FFF7D7FE01E0D8
:10519800FFF7CAFEE3074FF0020002D5FFF7CEFE85
:1051A80001E0FFF7C1FEBDE81040FFF7E5BE0000D3
:1051B80003460A4A82B0282B1068019028BF0023B2
:1051C80002AA032988BF0021114411F8040C1844CD
:1051D80060F07F00C0B202B0FFF70DBF01AD00085C
:1051E80010B51446FFF7E4FF013C14F8010F10B1A5
:1051F800FFF78AFFF9E710BD10B5094C88B06023A6
:1052080001930290002301A90422204603930593E9
:10521800FDF7FCFF20460421FEF768F808B010BD32
:10522800380D00200A490B4A0B78012B138806D148
:1052380005339BB2962B138007D1002304E0053B6E
:105248009BB213800BB901230B701088FFF7D4BFF2
:10525800480200201E0400202DE9F0413F49404843
:10526800404C414D96B019220023FFF79FFC00F0F7
:10527800E5FD03F0BDFFA08100F046FD206000F0D1
:105288000FFD2946064603F0A9FF08B9666000E04D
:10529800656020686168354D304E03F0E3FDB4F970
:1052A8001430A0602BB9306803F0A2FF286000F02A
:1052B8005BFD286803F082FD0146306803F0C8FCF6
:1052C800696820F0004003F081FE2949054603F093
:1052D8007BFF08B9256101E0264B23610025206981
:1052E800294603F05DFF08B11E4B1D612068224965
:1052F8001C4D03F073FF10B10123EB7500E0E87556
:10530800FEF704FF0128074625D1DFF8808098F8CA
:10531800005005BB194E33681BB9FBF725F8306000
:1053280019E0FBF721F83368C01A154B984212D9D7
:10533800FEF700FF134814493A4601F051FE30B910
:10534800684688F80070FEF7DBFEA77503E088F86A
:1053580000503560A57516B0BDE8F08154060020F0
:1053680014040020E803002066661E41040400209F
:1053780000401C46003C1C460000A04018040020C9
:10538800F04902002004002005AD00081C0400209C
:1053980008B5FEF761FFFEF71DFFFEF7E5FFFEF714
:1053A80011FEFEF7D9FEFFF729FAFEF747FFFFF7D0
:1053B800D7F90A4B0A4A1B68B3FBF2F3013BB3F176
:1053C800807F09D2074A5360074BF02183F82310E6
:1053D800002393600723136008BD00BF0800002066
:1053E80040420F0010E000E000ED00E01FB5194951
:1053F8006846FFF797FCFFF7CBFFFFF779FCFEF74E
:1054080099FE00F0E5FC0520FFF7F6FE6846FFF779
:10541800A7FC1148FFF79CFBFFF76CFD00F036FC7A
:1054280000F0FCFC4CF25030FAF7A4FFFFF7FAFE4C
:10543800FFF712FF00F0E6FC044600F0D5FC214619
:1054480002466846FFF7DCFC044B187DFFF764FD55
:10545800E8E700BF5801002014040020E8030020FA
:10546800014B024A1A6070471404002038AB000848
:105478000148FFF765BB00BF14040020074B08492B
:1054880001221A7000230B7006490B800649086830
:10549800486006490B80064B1A7070474902002085
:1054A8007A0600206C060020600600207E06002098
:1054B8006E060020064B01221A70064A002313705C
:1054C800054A1380054A1380054A1370704700BFC8
:1054D800490200207A0600206C0600207E06002083
:1054E8006E06002070B51B4D2B7888B07BB3FFF794
:1054F800D5FD0024184B19491A881948A3180A68B9
:105508004968891A891041438B42E6B21AD2154973
:10551800098899420CBF3E2120218DF804101C21D6
:1055280001FB03220DF10500137E1BB10E4904F0A7
:10553800ADFA02E0114604F01AFB0020314601AA38
:10554800FFF74EFE0134042CD4D100232B7008B091
:1055580070BD00BF490200206C06002060060020D4
:10556800B76DDBB67E06002008AD000810B5002137
:105578000446074A0320FFF733FE064B1CB10122FD
:105588001A70002010BD187800B11C7010BD00BF43
:105598000DAD00087006002010B500210446074A2A
:1055A8000320FFF71DFE064B1CB101221A700020D4
:1055B80010BD187800B11C7010BD00BF0DAD0008FB
:1055C8007B06002010B500210446074A0320FFF798
:1055D80007FE064B1CB101221A70002010BD187876
:1055E80000B11C7010BD00BF0DAD00086F06002093
:1055F80010B500210446074A0320FFF7F1FD064BCA
:105608001CB101221A70002010BD187800B11C705E
:1056180010BD00BF0DAD00085806002010B50021D0
:105628000446074A0320FFF7DBFD064B1CB10122A5
:105638001A70002010BD187800B11C7010BD00BF92
:105648000DAD00088006002010B500210446074A69
:105658000320FFF7C5FD064B1CB101221A7000207C
:1056680010BD187800B11C7010BD00BF0DAD00084A
:105678007906002010B500210446074A0320FFF7E9
:10568800AFFD064B1CB101221A70002010BD18781E
:1056980000B11C7010BD00BF0DAD000878060020D9
:1056A80010B500210446074A0320FFF799FD064B71
:1056B8001CB101221A70002010BD187800B11C70AE
:1056C80010BD00BF0DAD00087C0600202DE9F84391
:1056D80043680568DFF880805D1BAD1043465D4375
:1056E80014BF2B4601235D1907460E46194B01D2FC
:1056F8009D422BD91D461C20684302F0DFF98146E4
:105708007B683C681C1B19EB04041FBF0FCE0FC439
:1057180096E8070084E8070097E81200641AA310C7
:1057280042465A4303D04846224604F0B5F8386842
:105738001C344C4408B102F0BFF91C2303FB059547
:10574800C7F800907C60BD60BDE8F883002DD2D119
:10575800A946D5E749922409B76DDBB670B58368C9
:1057680044689C4206460D460AD02CB10FCD0FC4A2
:1057780095E8070084E8070073681C33736070BD00
:10578800FFF7A4FF70BD00002F4A30B592E80A0069
:1057980005465B1A2D489B10A3B0584318BF5160AB
:1057A80001A82B4904F0E3F9002327488DF81C30A1
:1057B80001A90693FFF7D2FF264B17A81A68264BB4
:1057C8000FA901F0DFFC0446D8B99DF94530C3B1F3
:1057D8000DF14501142208A804F0EDF90F9B0D9373
:1057E8009DF8443018488DF83940C3F3001308A9D0
:1057F8008DF83830FFF7B2FF17A80FA901F0A0FC09
:10580800E1E7B5B10024E0B208A9A847013480B1A6
:10581800089901A8142204F0CEF9002306938DF804
:105828001C300948012301A98DF81D30FFF796FFA8
:10583800E9E70A4B01221A70094A00231380094A32
:10584800138023B030BD00BF60060020B76DDBB603
:1058580022AD00087406002033AD0008490200207C
:105868006C0600207E060020F0B5784C174622789A
:1058780085B005460E46062A00F2DF80DFE812F002
:1058880007000B0034003900BC00D100D900FFF735
:10589800F5FD012326E06E4E3378BBB1FFF7FEFB22
:1058A800002001466B4AFFF79BFC002001216A4A51
:1058B800FFF796FC00200221684AFFF791FC0020C0
:1058C8000321674AFFF78CFC0023337025B9654B29
:1058D8001B78002B40F0AD80634B9B7D002B00F0C4
:1058E800AC8002232370A8E01846FFF74DFF03237E
:1058F800F8E7002851D15B4B1B78002B4DD05B4B50
:105908005B4A1B8812685B491C2606FB0326304647
:1059180004F023F9002800F08C80307E002836D06F
:105928003046554904F019F998B94FF0FF325348F9
:10593800534902F050F9421C03465AD003A84F4974
:105948002A4602F04BFB4D4803A902F014F903A8BC
:1059580017E0314601AA02A802F07AFB484A294614
:1059680002A802F083FA04AE036846F8043D454BEA
:1059780003603146414802F0E8FA304602F080F907
:1059880002A802F07DF90223237028465CE0052373
:1059980023702F4B01221A7056E0002E1ADD344C6A
:1059A8003248616824680288091B374C531C8910E7
:1059B8009BB261438B42038001D3028019E03349D3
:1059C80008881B1A032BC4BF023A0A80204B012205
:1059D8001A700EE00DD0254A13880BB9138008E021
:1059E800013B9BB21380294A11889942EED9138052
:1059F800ECE7FFF777FD20E0154B1B783BB1FFF78D
:105A08004DFB234B002001461A68FFF7E9FB25B13F
:105A1800144B01221A70002016E0124B1B7873B148
:105A280007E0124B294618883246B84728B904239C
:105A380058E7FFF73FFD012006E0002DE8D1094BAC
:105A4800187808B10020187005B0F0BD6E06002067
:105A58004902002035AD000844AD00084DAD0008EE
:105A68005DAD00087A060020E80300207E060020CD
:105A78006006002068AD000871AD000874060020BB
:105A880074AD0008980A0020B76DDBB66C060020DC
:105A98005C06002007B50949094801AA02F0D8FAAE
:105AA80001AA0849084802F0D3FA084B00221A60F4
:105AB8005A609A6003B05DF804FB00BF74AD00083B
:105AC8007406002076AD00085C0600206006002001
